:1000000000800020BD010000E1560000995600006C
:100010009956000099560000995600009956000024
:10002000995600009956000099560000E1560000CC
:10003000E1560000995600007172000075720000D0
:10004000E1560000E1560000E1560000E1560000D4
:10005000E1560000E1560000E1560000E1560000C4
:10006000E1560000E1560000E1560000E1560000B4
:10007000E1560000E1560000E1560000E1560000A4
:10008000E1560000E1560000E1560000E156000094
:10009000E1560000E1560000E1560000E156000084
:1000A0007550000081500000E1560000E15600004C
:1000B000E1560000E1560000E1560000E156000064
:1000C000E1560000E1560000E1560000E156000054
:1000D000E1560000E1560000E1560000E156000044
:1000E000E1560000E1560000E1560000E156000034
:1000F000E1560000E1560000E1560000E156000024
:10010000E1560000E1560000E1560000E156000013
:10011000E1560000E1560000E1560000E156000003
:10012000E1560000E1560000E1560000E1560000F3
:10013000E1560000E1560000E1560000E1560000E3
:10014000E1560000E1560000E1560000E1560000D3
:100150006173000075730000897300009D730000D7
:10016000E15600002D600000E1560000E15600005D
:10017000E1560000E1560000E1560000E1560000A3
:10018000E1560000E1560000E1560000E156000093
:10019000E1560000E1560000E1560000E156000083
:1001A000E1560000E1560000E1560000E156000073
:1001B000E1560000E1560000E1560000564B4CF2BB
:1001C000205210B51A804DF628121A8000BF00BFC9
:1001D00005F08AFA514B4FF010621A60504A9A604B
:1001E000504ADA60504A136813F4807304D14F49BF
:1001F0000B604FF4A85313604D4B1A78110703D5C9
:100200001A7842F008021A704A4B4B492A221A7097
:100210004A4A4B4B8B4204D252F8040F43F8040B6A
:10022000F8E7484B484900228B4202D243F8042B9E
:10023000FAE74649464A002352F8230041F82300D2
:1002400001336F2BF8D1434B434A802103F8011B44
:100250009342FBD1414B3D4A1A60414B8A221A70AE
:10026000A3F5805324225A70A0221A709A7992071B
:10027000FCD59A79D406FCD43A4A937903F00C035E
:10028000082B384BF9D105221A7143225A719A79F9
:100290009006FCD5334A9179324B4906FBD5324A58
:1002A0004FF0817111600521516020221A709A79F6
:1002B00002F00C020C2AFAD12C4B2D4A1A602D4B5D
:1002C0002D4A1A6000225A60072243F8042C2B4A58
:1002D000C3F80C2D62B605F05FFD144B1B68DA07FE
:1002E00005D5274805F028FB264B274A1A60274BDF
:1002F0001B785B0609D5234C234B22689A4204D114
:100300001F4805F019FB0023236008F03DFB05F0B2
:10031000F1F907F04DF8FEE70E200540308004406B
:10032000823F04000100002B10D0034014D0034092
:1003300002D0074000E007407091FF1FB0EE0100BF
:100340004088FF1F7091FF1F7CBBFF1F0082FF1FB3
:100350000000000000E400E05FE400E008ED00E0E1
:1003600000500640004006404480044004800440A1
:10037000C010050014E000E03F190100000020203B
:100380004ABF34621CE00340A5C3945A00F0074002
:10039000FFFFFFFFFFFFFFFFFFFFFFFFFFFFFFFF6D
:1003A000FFFFFFFFFFFFFFFFFFFFFFFFFFFFFFFF5D
:1003B000FFFFFFFFFFFFFFFFFFFFFFFFFFFFFFFF4D
:1003C000FFFFFFFFFFFFFFFFFFFFFFFFFFFFFFFF3D
:1003D000FFFFFFFFFFFFFFFFFFFFFFFFFFFFFFFF2D
:1003E000FFFFFFFFFFFFFFFFFFFFFFFFFFFFFFFF1D
:1003F000FFFFFFFFFFFFFFFFFFFFFFFFFFFFFFFF0D
:10040000FFFFFFFFFFFFFFFFFFFFFFFFDEF9FFFF23
:1004100010B5054C237833B9044B13B10448AFF33E
:1004200000800123237010BD7091FF1F00000000A9
:10043000ACEE0100084B10B51BB108490848AFF3FA
:1004400000800848036803B910BD074B002BFBD0A0
:10045000BDE81040184700BF000000007491FF1F66
:10046000ACEE01007091FF1F000000002DE9F04F7D
:10047000012187B00C2005F001FCBE4B1B78002B3E
:1004800000F06B81BC48BD4B0268BD4C1968036825
:10049000BC4D24681214194434F912402A880160B2
:1004A000016812048A424FEA441502DC03689A1A72
:1004B0000260B548B54B0268B5491E680368096813
:1004C000B44C1214334431F91210228803600368CB
:1004D00012049A424FEA411102DC03689A1A026040
:1004E000AD4FAE4CAE4B3868AE4A24881B88AE4E3A
:1004F00002FB00F202F540529BB23932A4B201FB7A
:1005000003F396F82B0022F0004205FB04F49B1243
:100510003A6003EBA423002800F0CB80A34EA44D47
:100520003678D5F80080A34DDFF8BC92DFF8B4C26E
:10053000DFF8BCE2A04FD9F80040DCF800B0D7F8F3
:1005400000A09E4FDFF8ACC242F3942206FB02F2F9
:1005500085FB02560096994DDEF80060D5F80090B4
:100560003E608BFB0667CDE90267009E944DD21773
:10057000C2EB661288FB0267CDE90467DCF8006015
:100580008F4F2D683A6084FB0678CDE90078DDE96D
:1005900002678AFB09AB4FEA1A58DDE9049A320D6B
:1005A000009CCCF8005048EA0B38019D42EA073223
:1005B0004244260DDFF840824C4646EA0536240DBB
:1005C000B51A44EA0A3498F800207E4E2C4404FB05
:1005D00002F286FB0265CEF80040D2174407C2EB58
:1005E000A50200F1C08000F00300022800F01B818A
:1005F000032800F00781744B1C6882FB04341A0D39
:1006000042EA0433714C724A2068DFF8F0E1714D20
:1006100012685EF820102D686F4EDFF8E4C136686E
:1006200083FB022381FB0589110D41EA03314FEA67
:1006300018556A4ADCF80030D2F8008081FB066762
:1006400045EA0935EB18320D42EA07325B10CCF867
:1006500000301344421C42454EF82030604822606E
:10066000A4BF00232360CF1704680A053B05101BB5
:1006700043EA113363EBE47184FB0545020D230D5E
:1006800042EA013243EA05331344B3F5801F67DAC7
:1006900013F5801FD8BF6FF02F0100F3D080282002
:1006A00005F05CF900210C2007B0BDE8F04F05F023
:1006B000E5BAF28D002AA5D03C483D4A90F800905A
:1006C000484D10683C493B4A474CDFF824E1246818
:1006D000DFF820C1D5F800800E683949DEF80050F7
:1006E000364FD1F800A003FB09F382FB03B9DB17F7
:1006F000C3EB69130B60DCF80010D7F800B03D6065
:1007000088FB057884FB0145CDE90045C146009C86
:10071000019DCCF800A0B84686FB0B6780FB030167
:100720004FEA1858330D43EA073348EA0938240DD5
:100730002E4F08EB030644EA0534030D43EA013368
:10074000A01B3978184400FB01F182FB0123C91773
:10075000CEF80000C1EB631354E74FF4FA619EE753
:1007600040F6CF719BE782FB0145220D42EA05323C
:1007700039E700BF74B8FF1F9491FF1FF8B7FF1F40
:10078000DCB7FF1FA2B8FF1FBC91FF1F80B1FF1F86
:10079000E0B7FF1FDAB7FF1F2089FF1F7EB8FF1FDA
:1007A000AAB8FF1F6D4EC64128B8FF1F75B8FF1FBE
:1007B00048B1FF1F1F85EB51D891FF1FC0B7FF1F26
:1007C000B8B8FF1F67666666A4B7FF1FF091FF1FEA
:1007D000C091FF1F78B8FF1FE8B7FF1F5CB1FF1F74
:1007E000F4B7FF1FD491FF1F50B1FF1FB891FF1F37
:1007F000BCB7FF1FBCB8FF1F60B1FF1FF491FF1F04
:1008000060B3FF1F104908680C68C0F5801083FBB7
:10081000005682FB04341A0D280D40EA063042EAE5
:1008200004321318EEE608490C6882FB0445200DDB
:1008300040EA0530034403EBD3735B10E2E65B123E
:1008400003F5FA612BE700BFA4B7FF1F10B50446FC
:1008500006F064FD204610BD2DE9F043142085B05C
:100860002A4C2B4EDFF8BC80DFF8BC90294F04F0F7
:10087000EDFD236801931FFA80FE01993160A8F80D
:1008800000E0A9F800E0254609E02B680393039AED
:10089000A7FB02039B0803EB83039A421ED0236845
:1008A0000293029B5B1AC72BEFD91B481B49A0F888
:1008B00000E0AEF13C0340F274409BB28342184A20
:1008C0000EF1200488BF00200EF1180E98BF012001
:1008D0000C80A2F800E005B0BDE8F083B9F8000094
:1008E000AEEB900E1420A8F800E004F0AFFDB8F8CD
:1008F000003031680028B8BF033003EBA00E1FFAA8
:100900008EFEA8F800E0A9F800E0C8E7C8B8FF1F0D
:10091000C4B7FF1FCDCCCCCCE491FF1F58B3FF1F51
:100920006AB8FF1FB091FF1F98B7FF1F10B5174C93
:100930002378082093B105F0A7F9154C48B923781E
:10094000B3B9082005F0A0F9003018BF01202070CD
:1009500010BD0021062005F091F9F2E705F094F9A9
:100960000B4A003018BF012001231070237010BD06
:10097000082005F089F90028E3D1064B1B78002BED
:10098000E7D00121062005F079F9DAE7B4B7FF1FB7
:10099000A091FF1F52B3FF1FF0B55B4A137885B0DB
:1009A000002B75D0594B5A4A1B6813F4007F13680B
:1009B00055D1272B57D85748574B0168574C33F818
:1009C0001110574DB4F9003089B2B1F5FA6F25F81E
:1009D000131054494FF001050E8805FA03F5ACBF1A
:1009E000354326EA05050D8001331BB2092B238010
:1009F0004A4C75DD4C4D09882E8800238E42238099
:100A00004A4C78D023604A4E4A4C33680293029B8A
:100A1000276836680396484E2980DB1B039933808C
:100A20000723216003601321444B454D374C454F4C
:100A3000454E03EBC10300215B6819602B6843F04E
:100A400020032B6021600568404941480123AB40E9
:100A50003B60002330602160136005B0F0BD0133BE
:100A6000272B1360F9D92B482C4C2E49DFF8A8E02E
:100A70000568B4F900303EF815500E88284F01255E
:100A80009D4042F20F7E354327F813E00D80ABE71F
:100A90002A492048D1F89C10294D1C4CDFF8A4E0CD
:100AA0002B4F072606600B602968274E41F0200176
:100AB000296023600168254D012000FA01F1CEF87C
:100AC00000101B493760256009680191194D134CCE
:100AD0000F49019E10702E6023800B6005B0F0BDA1
:100AE0001C491D4CC95C635C03600F2B9CD900231F
:100AF000136005B0F0BD23680133022B236082D957
:100B0000164B19807FE700BF64B3FF1F00500440FD
:100B10009CB8FF1F4CB3FF1F0051044058B1FF1F8A
:100B200068B3FF1FFCB7FF1FA8B8FF1FE091FF1FAE
:100B3000C8B8FF1F48B3FF1F5AB3FF1F14E90100D5
:100B400038800440085004400450044080014A00AA
:100B500000000203E4EB0000EC51010066B8FF1F47
:100B6000C0F30123022B10B430D0032B0CBF0C2395
:100B70000023C0F34602164CA25C1344183ADBB2C1
:100B8000D2B200F00101182A03F11800C0B207D850
:100B9000104C24FA02F2D20702D509B11933D8B2A7
:100BA0000D4B10BC1A8883B21A4492B2A2F10C0108
:100BB00054299CBFD0B21346084A12881A4492B2F4
:100BC000A2F10C03542B98BFD0B270471823D0E782
:100BD000B4B301002110020196B7FF1F80B3FF1FBD
:100BE00008B5052005F050F890B9134A1349136869
:100BF000086005332D2B136018D9114A0123137097
:100C0000104A117811B9104901200870137008BDFD
:100C10000A4909480A68053200235F2A0A6003600E
:100C200004D90749074A0B70137008BD044B1B78A1
:100C3000002BE5D1034AE9E7A491FF1F74B1FF1F20
:100C400076B8FF1FB991FF1FB4B8FF1F70B5064DEE
:100C500005F128062C46601B04F0DCFC04F8010BAF
:100C6000B442F8D170BD00BF00B8FF1F70B5064C8C
:100C700004F12806E54314F8011B601904F0E4FCB4
:100C8000B442F8D170BD00BF00B8FF1F70B50E2090
:100C900004F0DCFB40F6E44303FB00F00028B8BF9F
:100CA00000F6FF703E4C03130420238004F0ECFF99
:100CB00000284ED13B4E33781BB93B4B1D78002D9D
:100CC0005BD00720002104F0EDFF41F2883005F0F1
:100CD00013F8364D2188AA7A40F68C23002A40F278
:100CE000BC7040F6980208BF1A4640F67E1318BF43
:100CF00003468A4212DC9942BCBF012333702C4B5D
:100D00001B7813B9284B1E7866B1AB7A274A23B1FA
:100D1000218840F68C23994215D870BD254A0120C0
:100D20001070E8E7244B1B68782BEED9314603207E
:100D300004F014FE3146072004F0B4FF41F288307D
:100D400004F0DAFFE1E700239372BDE87040FFF79B
:100D50008DBF1A4A144E154D012300210320137034
:100D6000337004F0FBFD0021072004F09BFF1149C4
:100D70000C4A00230B701370C1E7104B01210720B0
:100D80001D7004F08FFF2946072004F077FF094B00
:100D90001B78002B9DD1CC21032004F0DFFD98E7C8
:100DA000EC91FF1FECB7FF1F5CB3FF1F00B8FF1FE4
:100DB0009A91FF1FFEB7FF1FD091FF1F88B8FF1F3A
:100DC000F0B4124B124A1A6029200B221521114D42
:100DD000D88140F6FF7401205A82998200220A21AC
:100DE0001A2730265D629C812D252E241871D87219
:100DF0001A729A725972DF821E835D839C83F0BCE3
:100E00005A719A711982FFF731BF00BF00B8FF1FF6
:100E1000CEFAEDFEDEC0DBE070B572B6114B124CBF
:100E200000220C201A7004F097FE40F283320F4922
:100E3000204606F029FA21680122227121B10C4BCB
:100E40000C480B441B111A540B4D0C4C0C490D4B08
:100E50000D4E0E480E4A2E600025256008601A606F
:100E600062B670BD74B8FF1F8CB3FF1F6D04000025
:100E7000008FFCBF44E400E078B8FF1F5CB1FF1FA7
:100E8000E8B7FF1FF4B7FF1F00350900CCCC0C00FA
:100E9000999901002DE9F843DFF8D091584899F865
:100EA000183058490022242B02700A700DDC564974
:100EB000564D574C574803EB43039B00CA18CE5A74
:100EC000516893682E802160036099F81930242BB3
:100ED0000DDC4D49504D514C514803EB43039B00F1
:100EE000CA18CE5A516893682E802160036099F821
:100EF00024304C4C4C4E4D4A4D49B9F82E004D4DC6
:100F0000DFF86C811B0584FB03435B0933604FF4FE
:100F10008014002313600C6007F0CCFA4649474E5A
:100F200007F0D4FB0146044607F01CFB4FF0934149
:100F3000074607F017FB07F0DBFC4FF07C512860F9
:100F4000384607F00FFB4FF0934107F00BFB0146CB
:100F50004FF07C5007F0FCF907F0CAFC21463060E6
:100F6000204607F0F7F9364D3649074608F5D8769A
:100F7000444609E054F8040F07F0A8FB324907F093
:100F8000F1FA06F0FDFA0146384607F0EBFA4FF0A9
:100F9000934107F0E7FA07F0ABFCB4422B4945F860
:100FA000040FE7D1B9F83000A0B1A0F11003B3F5F8
:100FB0001C5F21D3204D2649002404E001346C2C11
:100FC00006D058F8041F284607F06AFC0028F5D020
:100FD000204B1C60204A214E214C2249224B0020EC
:100FE0001060192728250A204FF400223770257039
:100FF00008701A60BDE8F88307F05CFA0546DAE786
:1010000074B8FF1F70B1FF1FB4980100A2B8FF1F92
:10101000B491FF1FDCB7FF1FDAB7FF1F70B8FF1FC7
:10102000E0B7FF1F1F85EB51D0B7FF1F34B1FF1F83
:10103000E891FF1F88B3FF1F00401C46B0B7FF1F99
:101040008CB1FF1FC9FF7F3FDB0FC94000401C4729
:1010500014D08241A8B7FF1FA4B7FF1F75B8FF1FA8
:10106000B891FF1F60B1FF1FC091FF1F28B8FF1F7D
:10107000986F0100F8B548B32B4A0A21002304E019
:101080000133172B4CD032F83E1C884202F13E024D
:10109000F6D10024254E264DC3EB431306EB430641
:1010A00006F1300CAE4630687168B268F368774676
:1010B0000FC710366645BE46F5D130687168B26814
:1010C000B389AEE80700AEF8003001E0184D0446E1
:1010D000AB8E174A042B9CBF052393862B8F144A93
:1010E000042B9CBF052313876B8F114A042B9CBFD5
:1010F00005235387EB8C0E4A042B9CBF0523D38416
:101100002B8D0B4A042B9CBF052313852B8C084A7F
:10111000042B9CBF05231384FFF7BCFE2046F8BDBB
:1011200000234FF0FF34B5E75EAE010020AE0100B2
:1011300028B8FF1FF0B56C490B78002B3FD06B4DE2
:101140006B4B95F83C206B486B4E6C4CEF8E120548
:1011500083FB0232520982FB0223120D42EA03335F
:10116000036000203070664A664E08706649106061
:1011700020603160002F4BD00B46644F64486549B6
:10118000B5F834E093FBFEF33B60012303800B7062
:10119000614F31683B688B423CDBAD8E1368584E23
:1011A000DFF848E19D423FD8BEF836303960002173
:1011B0003160002B3AD104230380012323E04E4CFD
:1011C0002278002A36D0494A5449558F2370544E0C
:1011D0004B4A4F481360A1FB054189080524316043
:1011E00004804D4F494E3C6894FBF1F1B9B18C42FB
:1011F0003160A4BF611A3960B3EB450F11D30023EE
:101200003E4C038001232168136001312160F0BD51
:101210003360B2E73D4E366833443B60BDE70121A1
:10122000E5E70133354CEEE70133ECE702230380B9
:101230000123E8E73648B0F90030052B04D8DFE891
:1012400003F039462709414B002303802C4A2B4CDD
:101250000123D8E7274B304F19683C68304B621A9E
:101260001B6892FBF3F3294A03B9012319448C420A
:1012700013601E49224A098FA4BFE31A3B6013681A
:10128000B3EB410FCDD30421013301801B4CBAE7EE
:101290001B4A16491368CC8E9C42C2D80B8F1F493B
:1012A0001F4D164CA1FB03139B0803212B600180EB
:1012B0000123A8E7124A18491368104C0020013393
:1012C0000860A0E70E4A0D4C136801339BE70C4AF7
:1012D0000A4C064D0B4E5BE7044B1149084A5D8FE3
:1012E000096813687DE700BFA0B7FF1F28B8FF1F7C
:1012F0001F85EB51B0B8FF1FC891FF1FB8B7FF1F84
:1013000038B1FF1F94B8FF1FFFFF0F0054B1FF1F3C
:1013100050B3FF1F74B8FF1F8CB8FF1FCDCCCCCCCF
:101320006CB1FF1F1B4B93F83D30012B0ED0022BED
:1013300015D0032B1AD0042B21D0174A174B127843
:10134000002A08BF0023164A13607047124A154B43
:101350001278002A124A08BF0023136070470E4B10
:101360001B78002BEFD0104B1B6801E00F4B1B6864
:101370000A4A9342A8BF1346094A136070470B4BB1
:101380000B4A1B68106883FB0001030D43EA01331D
:10139000EEE700BF28B8FF1F70B1FF1FFFFF0F006F
:1013A000C091FF1FFFFF07009C91FF1F8CB8FF1F1C
:1013B0009091FF1FF0B5294C294D94F82A30294E01
:1013C00029781B0586FB03235A09B9B194F8241028
:1013D000DFF89CE02448254F090586FB01314909C7
:1013E0000023CEF80010012103602B703980E18CBE
:1013F0001A4C99421BD901330360F0BD1B4F1A48A8
:10140000B7F90030022B05D0032B0CD11849036823
:101410000A60F0E7228D03689A4215D8032201334F
:101420003A800360F0BD012B0368E4D1DFE7104B85
:1014300010491B68248DD31A022593FBF4F2012373
:101440003D800A600360F0BD09490A4A0C681268D1
:10145000013322440A600360F0BD00BF28B8FF1FBB
:101460007CB8FF1F1F85EB51CCB7FF1FCA91FF1F30
:10147000D0B7FF1FF0B7FF1F30B4344B1B78022BDF
:1014800033D0334BB3F90030022B1BD0032B0BD1DD
:10149000304A1368002B03DDA3F52353353B13605B
:1014A000002B01DA0023136030BC70472A4C2B4D0F
:1014B00020682D8C85429CBF1A460B800130022A81
:1014C0002060F1D1234A264913688B4207DC234868
:1014D0004FF48011008C91FBF0F10B441360214913
:1014E0008B42E1DD116030BC70471949B1F9002031
:1014F000032A12D01C48B0F9000005280BD01B4C61
:10150000247844B9D2B9134B01281A60CCD1124BBC
:1015100008801A60C8E703230B800E4A136842F65E
:10152000F5008342B8DC114A13786BB10020012327
:1015300010700B80084A00211160A7E7012AB5D07E
:10154000022ABFD00C80AFE70B80F3E77DB8FF1F06
:101550007CB1FF1F3CB1FF1F6CB8FF1F28B8FF1FF5
:10156000FEFF0F00FFFF0F0050B3FF1FA0B8FF1FCB
:10157000284A92F82230012B1ED0022B24D0032BB4
:101580003FD0042B10D092F8233003EB83035B0091
:1015900072B6214A21499BB213801388C3F57A732E
:1015A0009BB20B8062B670471D4B1A684FF47A737A
:1015B00003FB02F31B15EBE71A4B1A684FF47A731F
:1015C00003FB02F31B15E3E71749D37F0A681748AB
:1015D0001749006802FB03F381FB0312DB17C3EB1F
:1015E000E21380FB0301030D43EA013303F580138B
:1015F00003EBD3735A104FF47A7303FB02F31B15FA
:10160000C6E70C4B1A684FF47A7303FB02F31B1501
:10161000BEE700BF28B8FF1FAAB8FF1F7EB8FF1F94
:1016200088B1FF1FD0B7FF1F3CB1FF1F34B1FF1FB0
:10163000B5814E1B9C91FF1F174B93F82C30012B4B
:1016400018D0022B1AD0032B1DD0042B03D0134B20
:1016500000221A607047124B124A1B680F4903EBB5
:101660008303C3EB031382FB0302DB17C3EB621399
:101670000B607047094B0C4A1A6070470B4A074BC6
:1016800012681A6070470A4B044A1B6803EBD37355
:101690005B101360704700BF28B8FF1FA4B7FF1F7F
:1016A00088B1FF1F1F85EB51FFFF0F008CB8FF1F94
:1016B0009C91FF1F70B41F4B93F82C202AB993F80C
:1016C0002D20012A03D0042A21D070BC70471A4B68
:1016D0001A686C2303FB02F31B156C2BD4BF23EA9F
:1016E000E3736C2372B61549154A164E52F823203F
:1016F00015480B68154D164C164933600068524268
:101700005B422B602260086062B670BC7047124971
:10171000DA7F0968114B124801FB02F283FB0213C6
:10172000D217C2EB63136C21026801FB03F302EBD7
:101730002353D2E728B8FF1FD0B7FF1FB0B7FF1F52
:1017400090B1FF1F48B1FF1F88B3FF1F50B1FF1FAB
:10175000D491FF1FD891FF1F34B1FF1F1F85EB519C
:10176000A8B7FF1F00F58013B3F5001F15D8B0F51B
:10177000801F15D0D8120C49421C31F8100031F8E6
:101780001220C3F30223121A03FB02F3002BB8BF8B
:10179000073300EBE300800170474FF4801070477F
:1017A0004FF40010704700BFF0EB00006C28F8B554
:1017B000044640F28D800C3CE4B26C2CFBD8474AC6
:1017C000474B1168474DA4F10C0253F8220006F074
:1017D0007DFFB5F91A1006464348CA1780FB01730E
:1017E000C2EBE3124FF4966303FB12131B0580FB5D
:1017F0000320DB17C3EBE010FFF7B4FF06F05EFE3B
:101800004FF0565106F0AEFE314606F0ABFE374BB8
:101810000746188806F052FE314606F0A3FE4FF048
:101820008F4106F09FFE324906F050FF07F060F846
:10183000304B06461968384606F048FF2E4B0746DF
:10184000188806F03BFE0146384606F08BFE4FF046
:101850008F4106F087FE264906F038FF07F048F86A
:101860002B8E002B29D0254A95F82C301D492BB101
:1018700091F82B305B0744BF0023136072B62049F8
:101880001268204B51F822201F4F204D20491B6821
:101890003E6028600B601F491F4C0E601F4F204D9B
:1018A000DFF884E01F492468CEF8000052425B4212
:1018B0003B602A600C6062B6F8BD95F832300F4A82
:1018C0001C44782CA8BF7824A4F10C031360CBE748
:1018D0000B283FF674AF0C34E4B270E7B491FF1FED
:1018E000986F010028B8FF1FB5814E1BA2B8FF1FDB
:1018F00000401C4770B8FF1FDAB7FF1FA8B7FF1FD3
:1019000090B1FF1FB0B7FF1FF8B7FF1F80B1FF1FD7
:1019100048B1FF1FC491FF1F88B3FF1F50B1FF1FC5
:10192000D491FF1FD891FF1F44B1FF1F70B51A4E0D
:1019300035782DB1FFF73AFF184B01221A7070BDB0
:101940000C46FFF733FF620382FB0223144815495C
:10195000120D42EA033202600D6072B6124B134858
:1019600093F82330124A134C134925609B0280FBE5
:1019700003035B090D6013801388104AC3F580636D
:101980009BB2138062B6054B0D490E4A1D700123B0
:101990000B701370337070BD70B1FF1FA0B8FF1FC4
:1019A0009091FF1F8CB8FF1F28B8FF1F1F85EB51B8
:1019B000AAB8FF1F9491FF1FBC91FF1F7EB8FF1FA5
:1019C000A0B7FF1F7CB8FF1F70B53F4C21780129DD
:1019D00011D08B1E012B68D9002973D13B4B1A788B
:1019E000012A4AD0032A4FD0394B4FF48010186097
:1019F000E1B9DAB970BD374B374ADB7F1268374837
:101A000002FB03F380FB0302DB17C3EBE2132F4A55
:101A10001278002AE4D1324A126882FB0323100DA7
:101A200040EA0330FFF79EFE294B18602D4D2E4BE8
:101A300029681E682D4A891B084482FB0021C217B1
:101A4000C2EBA10228601A6072B6294A19681268AE
:101A50002078284C82FB0123120D42EA033203282E
:101A6000226008D0244B25481A6881FB0223120DFE
:101A700042EA0332026062B670BD214B1868FFF77C
:101A800071FE134B1860D1E7124A1E4B928B1B68F4
:101A9000124803FB02F380FB0320DB17C3EBE010CB
:101AA000FFF760FE0A4B1860C0E70A4A164BD07F6A
:101AB0001A680A4B02FB00F283FB0203D217C2EB47
:101AC000E313A4E70023A2E77DB8FF1F94B7FF1F2D
:101AD000E891FF1F28B8FF1F88B1FF1FB5814E1B7B
:101AE00034B1FF1F2889FF1F2489FF1F67666666C0
:101AF000C491FF1FF8B7FF1F44B1FF1F80B1FF1F44
:101B00008CB1FF1F9C91FF1F3CB1FF1F2DE9F843D3
:101B1000FFF710FBFFF74EFC204B214A997F21482D
:101B2000214B0668214F224D224C090282FB0112F3
:101B3000920840F2EC4101FB02F283FB0213D21740
:101B4000C2EBA313334483FB078903EB0901DA17C4
:101B50003612C2EBA14202EB820235F91610C2EB3B
:101B60008212A3EB82224B0102602360FFF784FC08
:101B7000FFF7D8FB104A13680133052B02D013601E
:101B8000BDE8F88300231360FFF71EFFFFF7F0FCAA
:101B9000FFF752FDBDE8F843FFF78CBD28B8FF1FE3
:101BA0006766666678B1FF1FD34D6210D1000DD015
:101BB00048A4010034B1FF1F84B8FF1F38B503F0FB
:101BC000E1FC064B064A0749802400251C71184693
:101BD0001D60BDE8384006F0B1BB00BF8CB3FF1FED
:101BE0001C89FF1F4D08000070B50C4C01250646EE
:101BF00078232046802184F83B3084F85E5084F8B6
:101C00005D5002F0EFFF3146204602F0EBFF29461F
:101C10002046BDE8704003F0A3B900BFE48AFF1F6F
:101C20002DE9F04FB34BB44F1C883E7983B020466A
:101C3000FEF796FF14F4407F804626D014F0E00FA4
:101C400023D0AE4D2B78012B40D07CD2AC4AAD4B8B
:101C500012881B889A4272D3AB4C2378002B40F039
:101C6000A081AA4B1B78002B40F090810123A84C47
:101C70002B700523A749A8480A6823600025053270
:101C80000A60056003B0BDE8F08F9C4D2B78012BF6
:101C90001CD054D3022B10D1994AA04B14881B8816
:101CA000A34264D99E4B9F489F4A1B780124002180
:101CB00004701170002B40F0A580954C2368002221
:101CC00005332A70236003B0BDE8F08FBB799148DB
:101CD000914A894F002101601160ABB9934B8C4C44
:101CE000402119700F4639464046FFF71FFE8C4BC6
:101CF0001B78002B40F099808D4A236882F8008081
:101D0000022205332A70DDE7814C2368092B74D940
:101D1000884A7B4B10881B88BA891B1A171AC3EB99
:101D2000C313BFB2DB0193FBF7F7002F7BDBB7F5E3
:101D30007E5F40F33C817F277C4B1F70D3E7744C60
:101D40002368053396E7022BB7D1DFF8B4A1734BB4
:101D5000BAF800401B88A342A4D8DFF8D4B1704D74
:101D60009BF80090C84540F09280297801E06C4DC6
:101D70002978704ABB891088241AC4EBC414181A35
:101D8000E40180B294FBF0F000287DDBB0F57E5FCB
:101D900040F3F080684C7F20684B1B88B3F57A7362
:101DA0006FD4C3EBC313DFF8A4E1654FDA018EFBF8
:101DB00002E31344D217C2EBE32303FB03F387FBD5
:101DC00003721A44DB17C3EB62339AB2B2F57E5F3B
:101DD00040F2D6804FF47E227F275A4BDFF870E125
:101DE0001C60594BCEF8002000221A6089BB4A4D76
:101DF0002B680533464C2B6023680533236003B002
:101E0000BDE8F08F4A4B1B781B04701E03F4FE03E1
:101E1000000243F4004343F0080300F470601843E9
:101E200004F030FF49E70F4686E7731E1B0203F4F8
:101E300070634FEA084243F41043390602F4FE028D
:101E400043F0090301F0FE401343184304F01AFF66
:101E500052E7741E240204F47064000644F42C3328
:101E600043F00B0300F0FE40184304F00BFF2B7807
:101E7000294D002B00F0C1802B681D2B6AD805333B
:101E8000B8E700221746A8E70024204684E7274B3E
:101E90001A7801921146FFF749FD297839B379790B
:101EA000019A002940F086804FEA094000F4FE00C4
:101EB000741E40F40040240204F4706440F00800F2
:101EC000204304F0DFFE194B1A78120602F0FE429E
:101ED00042F410424FEA084142F00902224301F461
:101EE000FE00104304F0CEFEBAF8004029788BF8CB
:101EF00000803EE766B8FF1F00B8FF1F71B1FF1FEB
:101F0000B091FF1F58B3FF1FA891FF1F52B3FF1FCF
:101F100080B8FF1F9CB7FF1FAC91FF1F6AB8FF1F5F
:101F200088B8FF1FC891FF1F70B1FF1F68B8FF1F5F
:101F300069B1FF1FE491FF1F40C00F0098B8FF1F59
:101F4000090402819C91FF1F8CB1FF1F87FC65A9CA
:101F500088B1FF1F3B0644F4D83003F0FE4340F045
:101F60000B00184304F08EFE2548204304F08AFE3F
:101F700005233FE700FB00F4A40BA401C0110BE70D
:101F8000204A9F013A40C3F3C81726E7082003F010
:101F90007BFE00287FF46AAE0121062003F06EFE6E
:101FA00064E6AE20FFF720FE0023237059E6C7F356
:101FB000C717C1E6120602F0FE42741E42F4104238
:101FC000240204F4706442F009024FEA08402243FC
:101FD00000F4FE00104304F055FE9BF800000004DE
:101FE00000F4FE0040F4004040F00800204304F0FC
:101FF00049FEBAF80040297879E72B680533F9E6FD
:102000000EE00040C0FF3F00F8B5834B1C78002C69
:102010003AD1824B1B78002B36D1814A117899B383
:10202000804F814E81493D8813700B60F27A65B311
:10203000B5F5407F48D0B5F5007F3DD0B5F5807F40
:1020400045D0C02D4CD0802D2ED0402D4BD0102D02
:1020500051D0082D5ED0012D69D0202D00F0948044
:10206000042D6ED0022D00F09B80212D00F0BA804F
:10207000062D00F0C680302D00F0BC80032D03D16A
:102080006B4B01221A70F8BDF8BDAF20FFF7ACFD15
:10209000684B694C0F2229461A70012525700620CD
:1020A000BDE8F84003F0EABD644AB2F900300A2BFB
:1020B000EADC01331380F8BD614AB2F900300C2B21
:1020C000E2DC0C331380F8BD5D4A1380F8BD5C4A36
:1020D000B2F9003013F10C0FD6DB0C3B1380F8BDC6
:1020E000564A1380F8BD554AB2F90030012BCBDDBA
:1020F000013B1380F8BD0132072A8CBF0022D4B205
:1021000006EB4203D889FEF7B5FFF472BDE8F8404C
:10211000FEF7ACBD541EA4B223B2013315BF04F0C8
:102120000704072323461C4606EB4303EAE7337AFA
:102130003D4A1BBB1572FEF799FD424B327A1A706D
:10214000F8BD707A002864D03F490522012301E0E0
:1021500011F8012F824203F101033ED0082BF7D181
:102160007472FEF783FD737A642B8DD83749384A31
:102170001B05A1FB03135B091360F8BD012B0CBF0A
:10218000022300231372D6E7F37983F00103F3717E
:10219000FEF76CFDF379EBB12E4B01221A70F8BDFE
:1021A000082003F071FD014608B13D885DE72A4B28
:1021B0001A78002A0CBF012200221A7005D10121D1
:1021C0000620BDE8F84003F059BD0620BDE8F84000
:1021D00003F054BD1F4A1370F8BD082BC0D01F4A2E
:1021E000D45CBDE7737983F001037371BDE8F840F7
:1021F000FEF73CBD1A4B1B88B381BDE8F840FEF7E3
:1022000035BDB37A83F00103B372BDE8F840FEF741
:102210002DBD0524A4E700BF71B1FF1F9A91FF1FD8
:10222000B4B8FF1F66B8FF1F00B8FF1FD091FF1F93
:10223000ECB7FF1FACB7FF1FA891FF1F80B3FF1FB4
:1022400096B7FF1F7DB8FF1FAD9801001F85EB51AA
:10225000F4B7FF1F94B7FF1F52B3FF1FAC980100E4
:10226000B091FF1F08B5AE20FFF7BEFCD520FFF7E9
:10227000BBFC8020FFF7B8FCA820FFF7B5FC3F208F
:10228000FFF7B2FCD320FFF7AFFC0020FFF7ACFC58
:102290004020FFF7A9FC8D20FFF7A6FC1020FFF7D8
:1022A000A3FC2020FFF7A0FC0020FFF79DFCA1204D
:1022B000FFF79AFCC820FFF797FCDA20FFF794FCA1
:1022C0001220FFF791FC8120FFF78EFC8020FFF7A2
:1022D0008BFCD920FFF788FC2220FFF785FCDB2050
:1022E000FFF782FC4020FFF77FFCA420FFF77CFC77
:1022F000A620FFF779FCAF20BDE80840FFF774BCCB
:102300002DE9F0411F4E4FF0B00878274046FFF707
:102310006BFC00250020FFF767FC05F11000C0B240
:10232000FFF762FC01244021164886F83B7086F8CE
:102330005E4086F85D4002F055FC00E00134082D57
:102340004FF000010F4809D002F04CFC102CF5D1E1
:1023500001210C480D4402F003FEDBE7631E032B52
:1023600003D802F03FFC102CE8D108F1010801214C
:1023700004485FFA88F802F0F3FDB8F1B80FC5D150
:10238000BDE8F081E48AFF1F70B50C4B002103F516
:10239000806223F8021B93424FF00004F9D1FFF74B
:1023A000AFFF0748074E0849084A094B047001254A
:1023B00008203570087014801C8070BD94B3FF1F16
:1023C000A1B8FF1FEE91FF1FEF91FF1F4CB1FF1F40
:1023D0009891FF1F2DE9F04F89B03F2A0390BDF877
:1023E000480000F28E80D4085FFA84F8154628442D
:1023F0003F28C4BFC2F13F0215FA82F07F297CD882
:102400000D090A4602951344802BC4BFC1F1800315
:1024100012FA83F3421E48BF821DD210B3F10109A4
:10242000019248BF03F10E09019BA3424FEA29190B
:1024300060DB012748F0B000FFF7D6FB029A914518
:1024400050DB02EB8415039B314E083503EB450549
:1024500014460DF11E0A05F180000DF10E022B4607
:1024600033F8101C22F8021F10338342F8D10220E7
:10247000FFF7BAFB04F00F001030FFF7B5FB78232D
:102480004021234886F85E7086F85D7086F83B3000
:1024900002F0A8FB4FF0100B0DF10E0301200021FC
:1024A00033F8022F4FEA420E120448BF01434FEAAD
:1024B000400C9A455FFA8CF0A3F800E0F0D1144884
:1024C0000BF1FF3B02F08EFB1BF0FF0BE4D101345C
:1024D00001210F4802F044FDA14503DB082C05F162
:1024E0000205B8D108F10108019B5FFA88F843455D
:1024F00044469FDA09B0BDE8F08F002211460292EF
:1025000081E74FF000084546444642466FE700BF6A
:10251000E48AFF1F2DE9F04F5F4A604B128889B0B3
:10252000144602921A8803917F2C944600F39A80F5
:10253000234604F00F094FEA141819188029C1BF67
:102540000299C1F1800080B21918B1F1010E48BFA3
:1025500001F10E0E03464FEA2E1E0DF10E010DF194
:102560001E05002421F8024FA942FBD1F04513DCDF
:102570000F28D8BF41467CDD04A901EB48044FF683
:10258000FF75414601E00F2B73DD01318E4524F8C4
:10259000025BA3F11003F6DAB9F1000F1CD004AB13
:1025A00003EB480AAAF1020A03EB4E060027F045A6
:1025B0000FDC5146002531F8023F03F001045B08AF
:1025C0001DB16FEA43436FEA5343B1420B80254686
:1025D000F1D101374F45EAD1039B03EB020B5A457A
:1025E00034DA3F2A32DC2E4B2E4908EBC20903EBCA
:1025F00049090B7804A9A9F1020901EB480AF04541
:102600001BDC56464D46444609E021EA07010134E9
:10261000A645298006F102060FDB082C0DD0012B00
:1026200035F8021F37881BD0002BEED001347940DB
:10263000A645298006F10206EFDA0CF1010CE3450C
:1026400004D0BCF1400F09F11009D8D1039B0093CD
:10265000029903461248FFF7BDFE09B0BDE8F08FAE
:102660003943D4E74FF00009C846CDF808904B46EF
:1026700063E7002B90D0490008AC0C44002534F8E7
:10268000104C013564109D4244F40044F9D108AB6C
:10269000194421F8104C7FE74CB1FF1F9891FF1FA0
:1026A00094B3FF1FEE91FF1F2DE9F04F1C4E1D4FFD
:1026B00034883D881FFA80FB1FFA81FAABF10202D1
:1026C00083B092B2631CAAF102099BB210461FFAB2
:1026D00089F9012105F101080192338000931FFA65
:1026E00088F8FFF717FF494601203480A7F80080DB
:1026F000FFF710FF019A009B3380013D10465544BF
:1027000001213D80FFF706FF013C5C444946012062
:10271000A7F80080348003B0BDE8F04FFFF7FABEA1
:102720004CB1FF1F9891FF1F2DE9F04F7C4C7D4B62
:1027300024881B8893B07F2C0B940C9304910D92EA
:1027400000F2DE80224604F00F094FEA1418049BC1
:102750001344802B05DD0B9BC3F180039BB20493D4
:10276000D31804990C9A0D9C02925E1E48BF03F187
:102770000E0611F0070318BF0123144403EBD10325
:10278000A24205944FEA2616089380F2C6803F2A9B
:1027900000F3C3800C9B644A644C08EBC30302EB58
:1027A0004302023A08F101014900730000F1040BF1
:1027B00003920EA812AA8D1E0EAF41181844D3180A
:1027C0007D19069394F800C0079502EB4803002793
:1027D0000991A5F1020A0A93069B4FF000024645B3
:1027E00023F8102CC0F295801BF8042C1BF8033C36
:1027F00043EA02230A9A22F8103C049A0F2A6DDD5C
:10280000DDF824E05946144645460BE011F8022C49
:1028100011F8013C0F2C43EA02232EF8023B01F190
:1028200002015DDD0135AE42A4F11004EEDAB9F12A
:10283000000F17D0002546450FDB5246002432F822
:10284000023F03F001015B081CB16FEA43436FEAEA
:102850005343824213800C46F1D101354D45EADBEA
:1028600046451FDB8646079D039C4146604607E0C0
:1028700022EA030301318E42238011DB08290FD0A5
:1028800034F8022F35F8023B1A4218BF01270128FD
:1028900022D00028ECD0013153408E422380EDDA63
:1028A00084467046029B059A01339A42029307D0F0
:1028B000089B9B44039B10330393029B402B8BD1BB
:1028C0000D9B00930C9A049B0B991748FFF782FD10
:1028D000384613B0BDE8F08F1343CBE7049C454660
:1028E000ACB10022114601315208A14242F400422B
:1028F000F9D1134012AA02EB450525F8103C96E7E2
:102900004FF00009C8464A46CDF82C901FE72346F1
:10291000F0E7B9F1000FC5D08CE70027D0E700BF82
:102920004CB1FF1F9891FF1F94B3FF1FEE91FF1F43
:1029300070B5334B1B7884B0002B35D0314BA0F1F0
:102940002001002213F831408DF80B2003EBC10168
:1029500004F00F064B1C64B2083101AA1D78002C4C
:1029600003F10103B4BF557015708B4202F10102EF
:10297000F4D1002CBCBF00238DF804306A282ED07F
:102980005B2834D05D282ED07B2834D07D282ED0F3
:1029900001A808220521FFF7C7FE1B4A138801334F
:1029A0001E44168004B070BD184B03EBC0006FF4DA
:1029B000807318440DF10B010DF1030310F8012F82
:1029C00003F8012F9942F9D10822062101A8FFF747
:1029D000ABFE0D4A13880633138004B070BD80230C
:1029E0008DF80B30D4E760238DF80B30D0E7C0238F
:1029F0008DF80B30CCE730238DF80B30C8E700BFE3
:102A000065B3FF1F609600004CB1FF1F0CBE0100B4
:102A1000F0B5244B8BB0D91D222201E013F8012F11
:102A200082423BD09942F9D14FF0010E1E4B1F4A12
:102A300003EBC00610F0800F6FF4807392F800C0B3
:102A400018BF4FF0000E1E446D4608AF16F8014F38
:102A5000082300204FF440418022013B22429BB2D8
:102A600018BF084352088908002BF6D1BCF1000FAB
:102A700004D0BEF1000F01D040EA5000030AC0B2FA
:102A80002B70AB706870E8700435AF42DED16846D9
:102A900010220C21FFF748FE0BB0F0BD4FF0000EE6
:102AA000C4E700BFBCD401000CBE0100A1B8FF1FE9
:102AB00008B5A0F13003DAB2092A11D80A48102269
:102AC00000EB43100C21FFF72FFE084A084913883A
:102AD000097803F10C00108009B10D33138008BD93
:102AE000FFF796FFF1E700BF042F01004CB1FF1F75
:102AF000A1B8FF1F2DE9F04184B06B46002203F816
:102B0000012B04A98B42FAD1A0F12203DAB21E2ACA
:102B100061D8344BD34003F0010383F0010C002B48
:102B200059D0A0F1200303EB830403EB44032E4CA4
:102B30002E4EE55C377800221C4405F00F08631C1C
:102B40008DF800208DF801206DB20B346A460CE040
:102B500011702FB1BCF1000F02D041EA5101117088
:102B60000133A34202F1010210D0002D1978EFDAEF
:102B70009170002FF4D041EA5101BCF1000FEFD069
:102B80000133A342917002F10102EED16A281DD0F7
:102B90005B2804D05D2802D07B38022803D89DF83A
:102BA00000308DF80A300C2208216846FFF7BCFD82
:102BB0000F4A3178138808EB0307BFB2BB1C1380A0
:102BC00009B10337178004B0BDE8F0819DF80530E6
:102BD0008DF80130E7E7B0F13B0C18BF4FF0010C66
:102BE0009FE700BF07140041CC4D0100A1B8FF1FB3
:102BF0004CB1FF1F2DE9F043A0F12203DAB21E2AE7
:102C000091B084466CD9BCF13B0018BF012001ABE8
:102C1000002203F8012B10A98B42FAD1ACF120035A
:102C200003EB830803EB4803384A12F8039002EBE6
:102C3000030809F00F0708F1010E4FFA89F908F1AE
:102C40000B0801AE1EF8015B082200244FF440413E
:102C500080232B4218BF0C43013A4FEA53034FEA3B
:102C60009101F6D108B144EA5404B9F1000F4FEADA
:102C70001423E4B22FDB3370B3707470F470C64564
:102C800006F10406DED1BCF16A0F32D0BCF15B0F55
:102C900007D0BCF15D0F04D0ACF17B0CBCF1020F8E
:102CA0000BD89DF804209DF805308DF82C208DF868
:102CB0002E208DF82D308DF82F3001A818221021EC
:102CC000FFF732FD124A1388033303EB47071780DF
:102CD00011B0BDE8F0833372B3727472F472CEE750
:102CE0000C4BD34003F0010383F00100002B8ED185
:102CF00089E79DF818209DF819308DF808208DF887
:102D00000A208DF809308DF80B30D6E7CC4D010044
:102D10004CB1FF1F071400410C4B1B78172B02D935
:102D20001F280CD870470F2B03D91F28FAD9FFF79B
:102D3000BFBE0B2B05D91F28F4D9FFF7DBBEFFF769
:102D400059BF1F28EED9FFF7F3BD00BFEF91FF1F5A
:102D50002DE9F041804608460C4605F071FEA0EBD7
:102D6000800000F140030E4A0E4F20780E4E0F4DAA
:102D70000F49A2F800801BB223EAE37300223B80D4
:102D80001F284FF0080332702A700B7005D9FFF727
:102D9000C3FF14F8010F1F28F9D8BDE8F08100BF68
:102DA0009891FF1F4CB1FF1FA1B8FF1F65B3FF1F14
:102DB000EF91FF1FF8B5074608460C4605F040FEA8
:102DC00000B2C0F110030D4A0D4D207817809B0012
:102DD0001BB223EAE3730B4E0B490C4A2B800027EE
:102DE00001250C231F2837700D70137005D9FFF7CC
:102DF00093FF14F8010F1F28F9D8F8BD9891FF1F11
:102E00004CB1FF1FA1B8FF1F65B3FF1FEF91FF1F5C
:102E10002DE9F0412249234E234FDFF8A8800020FE
:102E2000FFF7C8FF00250D23012180203B8035805E
:102E3000FFF770FB1D491E4AB8F800301D480D70A1
:102E4000082111709A07057018D510231A4C358087
:102E50003B805020FFF760FF14F8010F1F28F9D8BE
:102E600000221A23154C32803B802020FFF754FFAC
:102E700014F8010F1F28F9D8B8F80030DB070DD57A
:102E8000002224230E4C32803B804520FFF744FF74
:102E900014F8010F1F28F9D8BDE8F081BDE8F081D2
:102EA000A4D400004CB1FF1F9891FF1FA1B8FF1FD1
:102EB000EF91FF1F65B3FF1F70D4000080D40000A6
:102EC00090D4000092B8FF1FF8B51349134E144D6B
:102ED000144C0020FFF76EFF13491448144A0023D6
:102EE0000B7001270C2133801423077011702B8085
:102EF0005320FFF711FF14F8010F1F28F9D8002203
:102F000022230C4C32802B807520FFF705FF14F82C
:102F1000010F1F28F9D8F8BDDCD400004CB1FF1F09
:102F20009891FF1FB4D40000A1B8FF1F65B3FF1F25
:102F3000EF91FF1FC8D400002DE9F843074608466B
:102F40000C4605F07DFDC00086B2BFB2DFF8689088
:102F50001649174A2078DFF86480164B07F1030EF4
:102F600035B2C5F18005A9F800E04FF0000E6D10F4
:102F700081F800E00121ADB211701F284FF00C0262
:102F8000A8F800501A7005D9FFF7C6FE14F8010F13
:102F90001F28F9D8B01D043DA8F80050A9F800700A
:102FA00000B21021BDE8F843FFF77EBBA1B8FF1FB8
:102FB00065B3FF1FEF91FF1F9891FF1F4CB1FF1FDB
:102FC0002DE9F04F3E4B83B01D7A002843D13D4E92
:102FD00033689D4202D103B0BDE8F08FDFF80CA149
:102FE000DFF80C91DFF80C81374F384C384A0192EA
:102FF0004FF0200B00230C2140201370A7F800B0E5
:10300000A4F800B0FFF786FA019AA7F800B00123F0
:103010000C21A4F800B013708AF8003089F8003051
:1030200088F800105DB92B4C5846FFF775FE14F870
:10303000010F1F28F9D8356003B0BDE8F08F012DCE
:1030400032D1254C4D20FFF767FE14F8010F1F28E1
:10305000F9D83560F0E72149DFF890A0DFF89090CB
:10306000DFF89080184F194C1D4E0020FFF7A2FE8C
:10307000002308218AF8003089F800301C2212232E
:1030800088F800103A8023804320FFF745FE16F8A9
:10309000010F1F28F9D813490A4E3020FFF74CFFC3
:1030A00040F2E7333360A1E7022DC4D10E4C5846FD
:1030B000FFF732FE14F8010F1F28F9D83560BBE77F
:1030C00000B8FF1FD4B7FF1F4CB1FF1F9891FF1F1F
:1030D000EE91FF1FF8D4000000D5000010D50000CD
:1030E000E8D4000018D5000008D50000A1B8FF1FE3
:1030F00065B3FF1FEF91FF1F2DE9F84F002867D13F
:10310000DFF86C9199F80030DFF84C8198F80020D6
:103110009A425BD0494C4A484A4A4B4E4B4F4C4D21
:103120000C234FF0010A194684F800A04FF0280B39
:1031300080F800A02024137032200023A6F800B0ED
:103140003C802B70FFF7E6F9082085F800A0A6F870
:1031500000B03C8002F098FD58B33E4C4D20FFF784
:10316000DBFD14F8010F1F28F9D8102498F800305F
:1031700089F80030214600234FF030086020348069
:103180002B70A7F80080FFF7C5F9012308203480D1
:10319000A7F800802B70304C02F076FD002846D155
:1031A00023784046002B3DD12C49BDE8F84FFFF76E
:1031B000C3BE98F800305BB3DFF8B8A02046FFF735
:1031C000ABFD1AF8010F1F28F9D8CEE7BDE8F88F3C
:1031D00023491B4E1B4D234C0020FFF7EBFD174BE3
:1031E00019481A4A00211970012708231221038067
:1031F00037702B7011805420FFF78EFD14F8010FEB
:103200001F28F9D8DFF86890FF2389F800307BE7A2
:10321000DFF864A02046FFF77FFD1AF8010F1F2892
:10322000F9D8A2E71049BDE8F84FFFF785BE0F496E
:103230003220BDE8F84FFFF78BBD00BFA1B8FF1FDC
:1032400065B3FF1FEF91FF1F4CB1FF1F9891FF1F48
:10325000EE91FF1F38D5000052B3FF1F78D5000054
:1032600050D5000020D500006CD5000058D50000D6
:103270009B91FF1F40D5000048D500002DE9F04F7D
:1032800083B0002840F0C980DFF808B29BF8003016
:10329000DFF8048298F80A209A4200F0B2806C4A63
:1032A000DFF8F891DFF8F8A1009200241023202124
:1032B00080201470A9F80040AAF80030654F664ECF
:1032C000664DFFF727F9009AA9F800400123137013
:1032D00014213C700822624C3370AAF800102A7046
:1032E0005320FFF719FD14F8010F1F28F9D85D4B83
:1032F0001A78082100233B7033702970002A40F0AF
:103300008380594C4720FFF707FD14F8010F1F2851
:10331000F9D8564B56481A88564B0093A0FB021218
:103320009209A3FB0210C00800EB8000A2EB400052
:103330004FF00C0E85F800E030304FF05A0E0022AE
:103340004FF00103C0B2A9F800E04FF0140E3A703C
:1033500001923370AAF800E0FFF7DEFC2E20FFF7A1
:10336000DBFC424B44491888444CA1FB0030009BD5
:103370004009A3FB002E4FEADE0E0EEB8E0EA0EBF3
:103380004E003030C0B2FFF7C7FC384B1888009BA6
:10339000A3FB0020C008A3FB0023DB0803EB83038F
:1033A000A0EB430303F13000C0B2FFF7B5FC562099
:1033B000FFF7B2FC4FF00102082120233270019A7E
:1033C0003A70A9F800202970AAF800305420FFF7BD
:1033D000A3FC14F8010F1F28F9D898F80A2000233D
:1033E00008213B70337029702AB3254C4E20FFF71B
:1033F00093FC14F8010F1F28F9D898F80A308BF8BD
:10340000003003B0BDE8F08F1E4C4C20FFF784FC69
:1034100014F8010F1F28F9D87BE71B49DFF874B0B7
:103420000020FFF7C7FC19493020FFF785FDFF2377
:103430008BF800302CE7164C4120FFF76DFC14F898
:10344000010F1F28F9D898F80A308BF80030D8E718
:10345000EE91FF1FA1B8FF1F65B3FF1FEF91FF1F84
:1034600080D50000FEB7FF1F94D50000EC91FF1F30
:10347000D34D6210CDCCCCCC1F85EB519CD5000038
:10348000B0D500008CD50000B8D50000C0D5000034
:10349000A4D5000068B1FF1F00B8FF1F4CB1FF1F8B
:1034A0009891FF1FF8B51649164E174D174C00207E
:1034B000FFF780FC16491748174A00230B700127B5
:1034C000082133801423077011702B805020FFF7E0
:1034D00023FC14F8010F1F28F9D8002220230F4CD9
:1034E00032802B807420FFF717FC14F8010F1F287F
:1034F000F9D80B493020BDE8F840FFF71DBD00BFEB
:10350000FCD500004CB1FF1F9891FF1FCCD50000E7
:10351000A1B8FF1F65B3FF1FEF91FF1FE4D50000A7
:1035200008D600002DE9F04F83B0002845D13A4F6E
:103530003B683A4EB2899A423CD0DFF8F8B0DFF8E7
:103540000881DFF8F490364C00254FF0100A0A216C
:103550008020ABF8005088F80050A9F800A0FEF7D2
:10356000D9FF30483049314B05704FF0010E082229
:10357000ABF80050A9F800A088F800E00D701A70B0
:103580004C20FFF7C9FB14F8010F1F28F9D8694632
:103590000A22B08905F038FA9DF800001F2888BF7C
:1035A0006C4605D9FFF7B8FB14F8010F1F28F9D8AE
:1035B000B3893B6003B0BDE8F08F1D491D4E1E4D21
:1035C0001E4C0020FFF7F6FB16491748174A002348
:1035D0000B700127082133801C23077011702B808A
:1035E0005020FFF799FB14F8010F1F28F9D800228B
:1035F0002623134C32802B806220FFF78DFB14F8BA
:10360000010F1F28F9D80F49034F3020FFF794FC12
:1036100042F20F733B608CE7A4B8FF1F00B8FF1F96
:1036200044D60000A1B8FF1F65B3FF1FEF91FF1F35
:1036300054D600004CB1FF1F9891FF1F14D6000014
:103640002CD6000064D60000EE91FF1F00F00F00A2
:10365000092802D93730FFF75FBB3030FFF75CBB7A
:10366000F0B50C2985B04DD8002914BF0D460125B1
:103670000028274FBABF40420124002401AA04AE0B
:1036800087FB0031C317C3EBA10303EB8301A0EB5E
:103690004100303002F8010B96421846F0D1324614
:1036A000012700200B234FF0200E04E0581C0027B8
:1036B00013F1FF330BD312F8011D2BB330291CD0AB
:1036C0000028F3D013F1FF334FF00007F3D224B1F9
:1036D00004AB18442D2300F80C3C0B2416F8013DD4
:1036E000A542184604F1FF3401DC202B01D0FFF77E
:1036F00013FB631CF2D105B0F0BD002FD8D082F8C7
:1037000000E0D5E70C25B3E70028E0D1CEE700BF05
:10371000676666662DE9F84F002878D1DFF870817A
:10372000D8F800304E4CB4F900209A4266D04D4F84
:103730004D4E4E4D4FF000094FF0300B4FF0120A36
:1037400014212020A7F800B0A6F800A085F800906A
:10375000FEF7E0FE4648B4F90030DFF82CE14549B9
:1037600080F80090012218204B45A7F800B0A6F879
:1037700000A02A708EF80020087041DD2B20FFF792
:10378000CBFAB4F900303C48DFF8089180FB032005
:10379000DB17C3EB600000B20121FFF761FF4FF0C0
:1037A000100AB4F90030C8F80030514600234FF039
:1037B000300860202B70A7F800A0A6F80080FEF764
:1037C000A9FEB9F80030A7F800A00122B3F5007FE8
:1037D0002A70A6F80080224A0CD0B3F5807F0DD164
:1037E000B4F90030002B09DB24493020BDE8F84F44
:1037F000FFF7A2BBB2F90030002B2ADDBDE8F88F3D
:10380000C1D12020FFF788FAB4F90030BBE71C498A
:10381000184D1C4C0020FFF7CDFA15481A4A1149E3
:10382000114B0026012706701770542008261C2211
:1038300008802E701A806F20FFF76EFA14F8010FBF
:103840001F28F9D8DFF8488040F2E733C8F8003085
:1038500068E740460D49FFF76FFBB9F80030BCE759
:1038600096B7FF1F4CB1FF1F9891FF1FEE91FF1FEE
:10387000A1B8FF1FEF91FF1FABAAAA2A88D60000AC
:1038800070D6000068D6000065B3FF1F80D6000028
:103890008C91FF1F66B8FF1F2DE9F04F83B0002801
:1038A00077D1DFF8B881D8F800305E4FDFF8B0A1EB
:1038B000B7F90020DFF884B19A4263D05A4D5B4CCF
:1038C0005B4E302212234FF0000914211E202A8063
:1038D00001922380009386F80090FEF71BFEDFF82C
:1038E0006CE1019AB7F90000009B52492A80524AC4
:1038F00023808EF8009001234FF0180E4845337056
:103900000B7082F800E005DD2B20FFF705FA454B30
:10391000B3F9000000286AD00121FFF7A1FE4FF0A3
:103920001009B7F90030C8F80030302700234946A5
:10393000602027803370A5F80090FEF7EBFDBBF800
:10394000003027800122C02BA5F8009032703B4C3C
:1039500053D0802B0BD0402B04D1324AB2F9002037
:103960000B3255DAAAF8003003B0BDE8F08F2D4ACB
:10397000B2F900200B2AF5DC38463149FFF7DCFAB2
:103980002388EFE7BAF80030BBF800209A4295D1BF
:10399000E8E72C49244D254C2B4E0020FFF70AFA6E
:1039A0002A4A244B24490020012710701F70082048
:1039B0005422142308702A8023807320FFF7ACF967
:1039C00016F8010F1F28F9D81E2354222380204CFB
:1039D0002A807420FFF7A0F914F8010F1F28F9D8E6
:1039E000DFF8788040F2E733C8F800305DE7202048
:1039F000FFF792F9B7F900008EE70A4AB2F9002002
:103A0000002AAFD038461349FFF796FA2388A9E772
:103A100038461149FFF790FA2388AAF8003003B01E
:103A2000BDE8F08F80B3FF1F4CB1FF1F9891FF1FBF
:103A3000EE91FF1F65B3FF1FEF91FF1F66B8FF1FD9
:103A400080D60000A4D6000094D60000A1B8FF1FC5
:103A50009CD60000B0D6000088D6000084B3FF1FBB
:103A600082B3FF1F2DE9F04F614A624BD57A02EB1A
:103A7000450285B0D18900240A2204E00134172CC4
:103A800063D033F83E2C914203F13E03F6D1002877
:103A90005ED1DFF89491DFF87CB1D9F800309D4217
:103AA000554B019304D11A88BBF80030934247D09C
:103AB000524FDFF85C81524E3A2212234FF0000A37
:103AC000142110203A800392A8F80030029386F85F
:103AD00000A0FEF71FFD039A3A804A4A029B82F833
:103AE00000A0494AA8F8003001211170474A3170FE
:103AF00018231370002D3AD13820FFF70DF9302329
:103B00004FF0000A1021802086F800A0A8F80030AD
:103B10000293C9F80050A7F800A0FEF7FBFCBBF821
:103B20000020029BA8F800300121182A3170A7F864
:103B300000A0374B374E1ED0102A40D0082A46D05E
:103B4000019B1A8005B0BDE8F08F00240028A0D0AA
:103B5000294B3149DFF8D09001930020FFF72AF973
:103B600040F2E733DFF8ACB0C9F80030A0E72846F0
:103B7000FFF776FDC3E702922848224AC4EB4414BB
:103B800082F800A000EB44041F4A32271F80A51CC6
:103B90001E4B117028460C21197004F051FF0F289C
:103BA00020D9A078029A1F28CAD9FFF7B5F815F8CE
:103BB000010F1F28F9D8BBF80020102ABED11849E0
:103BC0003020FFF7B9F9BBF80020082AB8D1154911
:103BD0003020FFF7B1F9BBF80020019B1A8005B037
:103BE000BDE8F08F29463846FFF7E4F83288A3E7AE
:103BF00000B8FF1F5EAE010040B1FF1F4CB1FF1FB8
:103C0000EE91FF1FA1B8FF1F65B3FF1FEF91FF1FCC
:103C10009891FF1F66B8FF1FBCD6000020AE0100C0
:103C200080D6000088D6000064B1FF1F2DE9F04F58
:103C3000404B85B05F7A00284DD1DFF81881D8F865
:103C400000309F4202D105B0BDE8F08F3A4B01939E
:103C5000DFF80491394BDFF804B1DFF804A10293D7
:103C6000374A03924FF00003202413700C214FF0C9
:103C700030032820ABF80030AAF80040FEF74AFCD9
:103C80004FF03002ABF80020039AAAF8004001265A
:103C90001670019A89F800601670029A294D0C235B
:103CA0003846022113700393FFF7DAFC019A4FF0B4
:103CB00000031670029A89F80030039B13702046A7
:103CC000FFF72AF815F8010F1F28F9D8C8F8007077
:103CD00005B0BDE8F08F184B01931D46174B1A49EC
:103CE000DFF87490029300201E46DFF870B0DFF812
:103CF00070A0164CFFF75EF80023082189F8003009
:103D00002B70162212233170ABF80020AAF8003075
:103D10005220FFF701F814F8010F1F28F9D80C49B9
:103D2000DFF830803020FFF707F940F2E733C8F8BA
:103D3000003095E700B8FF1F65B3FF1FEF91FF1F2D
:103D4000EE91FF1FD4D60000D8D60000C4D60000E4
:103D5000E0D60000ACB8FF1FA1B8FF1F4CB1FF1F99
:103D60009891FF1F2DE9F0474349444EDFF8208129
:103D7000434D444C444FDFF81C910020FFF71AF8E4
:103D8000002301213370A8F8003008221023297085
:103D900022703B802E20FEF7BFFF19F8010F1F286D
:103DA000F9D80023012108223370A8F80030DFF889
:103DB000E89029701A2322703B804620FEF7ACFF62
:103DC00019F8010F1F28F9D801214FF00009084602
:103DD0004FF0080A86F8009085F8009084F800A05B
:103DE000FFF73EFC2E20FEF797FF01210846FFF764
:103DF00037FC2E20FEF790FF48460121FFF730FCEC
:103E00000122242386F80090A8F80090DFF88C9017
:103E100084F800A02A703B804420FEF77DFF19F84B
:103E2000010F1F28F9D800230821142233702B70AA
:103E3000DFF86C9021702E23A8F800203B804D20E5
:103E4000FEF76AFF19F8010F1F28F9D81A23A8F8FE
:103E50000030082338200021012223700B4C3880C9
:103E600031702A707720FEF757FF14F8010F1F28D2
:103E7000F9D8BDE8F08700BF38D70000A1B8FF1F10
:103E800065B3FF1FEF91FF1F9891FF1F28D7000018
:103E90004CB1FF1F30D80000E8D60000FCD600006F
:103EA00018D70000F8B5C14B1B68042B52D8C04B83
:103EB0001C88002C40D0B4F5007F42D0B4F5807F40
:103EC0003FD0802C5CD024F08003402B58D0102CA5
:103ED0005FD024F01003082B5BD0202C00F0A380CF
:103EE000012C00F0A280042C00F0B780022C00F01E
:103EF000CC80212C00F0E180062C00F0E080032C27
:103F000000F0F580242C00F00B81302C00F01E8195
:103F10000024A84D2B789C4200F03381FEF734FA40
:103F2000A54EA64B0D2200270121802037801A8044
:103F3000FEF7F0FA2C70F8BD9E4D2B78012B4FD177
:103F4000F8BD9C4C2378022B3AD10020BDE8F84004
:103F5000FFF7E0BBFEF718FAAE20FDF745FE984BE1
:103F6000984A1B7800211170002BA0D0082001F086
:103F70008BFE00289BD10121062001F07FFE96E7F1
:103F80008C4C2378032B3ED10020BDE8F840FFF78E
:103F900083BC884C2378042B33D0FEF7F5F9864D8B
:103FA000864B0D228020002601211A802E80FEF7EC
:103FB000B1FA042323700120BDE8F840FFF752BD99
:103FC000FEF7E2F97C4D7D4B0D2280200026012179
:103FD0001A802E80FEF79EFA022323700120B5E797
:103FE000FEF7D2F9744A754B148001210D2280200E
:103FF0001A80FEF78FFA01232B70BDE8F840FEF718
:1040000063BF0020D8E7FEF7BFF96B4D6B4B0D2265
:104010008020002601211A802E80FEF77BFA0323E0
:1040200023700120B1E7082473E7624C2378052B45
:1040300000F0A380FEF7A8F95F4D604B0D228020B1
:10404000002601211A802E80FEF764FA05232370D2
:104050000120BDE8F840FEF7B3BF564C2378062B8D
:1040600000F08D80FEF790F9534D544B0D228020C7
:10407000002601211A802E80FEF74CFA06232370B9
:104080000120BDE8F840FFF7D1BD4A4C2378092B49
:1040900000F08980FEF778F9474D484B0D228020CB
:1040A000002601211A802E80FEF734FA092323709E
:1040B0000120BDE8F840FFF71FB8072429E73D4C71
:1040C00023780A2B00F08280FEF75EF93A4D3B4BD5
:1040D0000D228020002601211A802E80FEF71AFA78
:1040E0000A2323700120BDE8F840FFF7C7B8314C20
:1040F00023780B2B6CD0FEF747F92F4D2F4B0D2259
:104100000026012180201A802E80FEF703FA2E4B14
:104110001B780B2222707BBBBDE8F840FFF7C2B9C9
:10412000244E33780C2B3DD0FEF72EF9224C234B36
:1041300000250D220121802025801A80FEF7EAF952
:104140000C233370BDE8F840FFF70CBE194C237800
:104150000D2B3ED0FEF718F9174A184B0D2580207D
:104160000026012116801D80FEF7D4F9257001205C
:10417000BDE8F840FFF7D6B9F8BD002069E7002098
:104180007FE7023C042C3FF6DBAE01A353F824F09A
:104190004B3F0000893F0000034000007B410000CE
:1041A0007F410000F8BD002083E700BFD091FF1FD2
:1041B00066B8FF1FACB7FF1F4CB1FF1F9891FF1FE0
:1041C00052B3FF1FA891FF1F5CB3FF1F00208AE7B7
:1041D000F8BD0020CCE700BF2DE9F04FBC4F97F8A9
:1041E000008083B0B8F1000F00F00C81DFF804A369
:1041F000BAF90030002B40F0A780B64C2278002A94
:1042000040F0C580B44EB54DB54FDFF82883B54CAE
:104210004FF000090C214FF0580B2820A6F800B0F1
:1042200087F80090A5F80090FEF774F9B8F8000040
:10423000A6F800B0000A4FF0010BA5F8009087F82F
:1042400000B0FFF703FA98F800804FEA1810FFF764
:10425000FDF908F00F00FFF7F9F94FF050080D22B3
:104260000C2130202A80019287F80090A6F8008067
:10427000FEF750F99C4B019A18882A80594687F816
:1042800000B0A6F80080FFF7EBF94FF01A030C21FD
:1042900030202B80A6F8008087F80090FEF73AF9CE
:1042A000914B87F800B0588AA6F800804FF01A03A7
:1042B00059462B80FFF7D4F94FF027030C2130200B
:1042C0002B8087F80090A6F80080FEF723F9874A34
:1042D00087F800B01088A6F800804FF0270302216D
:1042E0002B80FFF7BDF96D20FEF716FD14F8010FC6
:1042F0001F28F9D87E4A13781BB3BAF800307D48DE
:104300007D4E754D01331BB2032B4FF00001D4BF1E
:104310000380018011700027FEF736F87749784A4C
:104320006E4B377001240C270C701770BAF900001F
:104330003422214678261A802E80FFF791F9654BAA
:104340001C7003B0BDE8F08F012B00F0F780022B4A
:1043500040F097815F4C2378002BCBD05E495F4AB9
:10436000684D00230B8013805320FEF7D5FC15F811
:10437000010F1F28F9D85A20FCF77CFE624B00255C
:10438000402145201D70FDF7D1FA2570B2E75A484B
:104390005A495B4A504E514D0370012008705B4FE3
:1043A00033800C2111702B805020FEF7B5FC17F8DC
:1043B000010F1F28F9D800220D23554F32802B8082
:1043C0004C20FEF7A9FC17F8010F1F28F9D800228E
:1043D0001A23504F32802B804F20FEF79DFC17F898
:1043E000010F1F28F9D8002227234B4F32802B8042
:1043F0005320FEF791FC17F8010F1F28F9D800236E
:10440000237001E7FDF7C0FF3B493C4A324E3C4B6D
:10441000324D81F8008001211170404CA6F80080D7
:104420000C221A70A5F800804420FEF775FC14F8E1
:10443000010F1F28F9D8DFF80081B8F800300021FB
:10444000102231802A8083BB354C2820FEF764FC83
:1044500014F8010F1F28F9D800222023314C328094
:104460002B805620FEF758FC14F8010F1F28F9D8AE
:10447000042001F009FC002840F0BF802A4C4C20A9
:10448000FEF74AFC14F8010F1F28F9D82749DFF876
:1044900064A03020FEF750FD0E4A01234FF6FF7155
:1044A000AAF8001013703B7024E7214C4520FEF75A
:1044B00033FC14F8010F1F28F9D898F800402009A0
:1044C000FFF7C4F804F00F00FFF7C0F8C4E700BF1F
:1044D000E4B7FF1FCC91FF1F4CB1FF1F9891FF1F46
:1044E000EE91FF1FC4D7000068B3FF1F5AB3FF1F30
:1044F000B4B8FF1F90B8FF1FA1B8FF1F65B3FF1F1F
:10450000EF91FF1FF8D700007DB8FF1F94D7000080
:10451000A0D70000ACD70000B8D7000048D70000F3
:1045200068D7000078D700008CD7000014D80000AE
:1045300058D7000066B8FF1F92B8FF1F754C22784D
:10454000002A63D1744E754D754F50244FF000080A
:104550000C21302087F80080A5F800803480FDF71A
:10456000D9FF704B34804FF001091888A5F80080FE
:1045700004214FF00D0B87F80090FFF771F80C2124
:104580003020A5F800B0348087F80080FDF7C2FF26
:10459000654BA5F800B0188887F8009004214FF00B
:1045A0001A0B3480FFF75CF80C213020A5F800B01E
:1045B000348087F80080FDF7ADFF5C4BA5F800B0B4
:1045C000988987F8009004214FF0270B3480FFF77B
:1045D00047F80C21302087F800803480A5F800B01F
:1045E000FDF798FF524B87F800901888348004211B
:1045F000A5F800B0FFF734F87CE64E4C4820FEF7F3
:104600008BFB14F8010F1F28F9D83FE74A494B48A4
:10461000414E424D4A4A0B704A4F00230C21037011
:1046200033802B8011705020FEF776FB17F8010FB6
:104630001F28F9D800220D23434F32802B805120B0
:10464000FEF76AFB17F8010F1F28F9D800221A237A
:104650003E4F32802B804D20FEF75EFB17F8010F96
:104660001F28F9D800222723394F32802B804D2074
:10467000FEF752FB17F8010F1F28F9D8002323700B
:1046800062E7032B7FF436AE224C2378C3B9224E67
:10469000224D234F00244FF050080C2130203C7055
:1046A0002C80A6F80080FDF735FF2A4AA6F8008086
:1046B000012310682C8004213B70FEF7D1FF19E61E
:1046C0001A4F254A97F80B80244B134E134D08F0D0
:1046D000070807EB480001214FF00009C08911705D
:1046E00083F80090FCF7C6FC87F80B80FCF7BEFA55
:1046F0001B4B3A7A1B4F1A70A6F80090A5F8009051
:104700005520FEF709FB17F8010F1F28F9D80023E1
:104710002370BEE7CC91FF1F4CB1FF1F9891FF1F84
:10472000EE91FF1FB091FF1FE491FF1F00B8FF1F24
:1047300098B8FF1F84D7000065B3FF1FA1B8FF1F03
:10474000EF91FF1FC8D70000D4D70000E0D70000CA
:10475000ECD70000D091FF1FC891FF1F70B1FF1F61
:104760007DB8FF1F08D8000010B5564C84B001F08A
:104770009FFA2368C01A312827D8534C01F098FAC1
:104780002368C01AB0F57A7F63D2504C504A236830
:104790000093009B11685B1A042B48D823684D4A8C
:1047A0000293029B116849485B1A312B17D84A4B78
:1047B0001B7883B9494B1A6841F288339A4202D96F
:1047C000474B01221A7004B010BD01F071FA20604D
:1047D000FCF7E2F8D1E7002002F0B8FAEAE7036854
:1047E0000393039B1360152000F030FE3D4B3E4ABF
:1047F0001B881080002B32D13C4C2378002B58D0E2
:104800003B4A13780133DBB2042B46D81370394C82
:1048100000210D2001F032FA2378002B38D1364ADE
:1048200013780133DBB2272B1DD81370BFE7236841
:104830000193019B1360FCF7D3F9142000F006FEEE
:104840002A4B2E4A1B781080002BA7D1FDF7E8F9E0
:10485000A4E701F02DFA2060FDF758F995E7284B01
:1048600000221A60C8E7002301210D20137001F017
:1048700005FA244B1B7833B9237823B14FF48051C8
:10488000032001F06BF81E4A1368023313608EE7B1
:104890000021032001F062F8C1E700231370FCF748
:1048A000F5F9FCF743F82378002BB0D0FFF794FC20
:1048B000ADE7FDF7A9FB144B1B78002BA0D1FFF748
:1048C000F1FA9DE784B1FF1FDC91FF1FC8B8FF1FFD
:1048D00054B3FF1FC8B7FF1F88B8FF1FA491FF1F65
:1048E000ECB7FF1F66B8FF1F98B8FF1F9A91FF1F14
:1048F000D8B7FF1FFEB7FF1FFFB7FF1FB091FF1F05
:10490000D091FF1F5CB3FF1F71B1FF1F2DE9F0476E
:10491000244ADFF8AC80DFF8AC90234F234E244DBF
:10492000244C012313700C2188F8003089F80030E2
:1049300020220023397032802B804220FEF7ECF9D0
:1049400014F8010F1F28F9D84FF00C0A55211E2228
:104950001948A6F800A00124A5F800A0FDF7E4FE80
:1049600066221623332088F8004089F80040328000
:104970002B8087F800A0FEF7CFF900200821202225
:10498000302389F800400D4C88F8000039703280DF
:104990002B804920FEF7C0F914F8010F1F28F9D821
:1049A000BDE8F087EE91FF1FEF91FF1F4CB1FF1F95
:1049B0009891FF1F1CD800002C89FF1F24D80000ED
:1049C000A1B8FF1F65B3FF1F70B50C2000F00AFDF2
:1049D0000C2001F0C1F8524800F018F95149504834
:1049E00000F05EF95049032001F0C6F801210D20C6
:1049F00001F058F90021042001F054F900210520AC
:104A000001F050F90121062001F04CF900210820A5
:104A100001F048F901210C2001F044F901210D2099
:104A200001F02CF90320002100F098FF052001F08F
:104A30002BF910B93D4B01221A70FCF727F96420BD
:104A400001F05AF93A4B1B78002B5ED0394C3A4EA4
:104A50004FF0FF3323606362FCF7F8F8626A374B6C
:104A60009A4258D0338843F001033380FCF7A8F909
:104A7000FBF7F2FE18B9338843F002033380FCF7EA
:104A8000CBF9E57A05F0070504EB4503D889FCF777
:104A9000F1FAE572FCF7EAF8637A642B06D8284944
:104AA000284A1B05A1FB03135B091360264B227ADE
:104AB0001A70FDF7D7FB642001F01EF9FDF764FCC6
:104AC000FFF724FF4FF47A7001F016F933882BB109
:104AD000FEF79EF94FF4FA6001F00EF94FF47A7088
:104AE00001F00AF9FDF750FCAE20FDF77DF8174CF8
:104AF000174B0F220025012106201A70257001F0A6
:104B0000BDF8144B01221A7070BD4FF48051032080
:104B100000F024FF9AE7104B22689A42A8D0A1E740
:104B2000E48AFF1F801A06003D5409459A91FF1F31
:104B30005CB3FF1F00B8FF1F92B8FF1FDEC0DBE0B1
:104B40001F85EB51F4B7FF1F7DB8FF1FA891FF1F12
:104B5000ACB7FF1F52B3FF1FCEFAEDFE0020704727
:104B600090F8392090F83800101A704790F83830D3
:104B700090F839209A4205D95A1C034480F838200D
:104B8000187E70474FF0FF30704700BF90F8383004
:104B900090F839209A4286BF1B18187E4FF0FF30DC
:104BA000704700BF704700BF38B50546B0F85E00DB
:104BB00090B195F85D301446C3F1210294420CD8AF
:104BC00005F13B001844224600F060FA95F85D308C
:104BD000234485F85D30204638BD012014462871F5
:104BE000EEE700BFB0F85E306BB190F85D30202B7F
:104BF00007D8C218013380F85D30012082F83B10DD
:104C00007047012303710020704700BF00234269F1
:104C100080F8383080F8393080F85C3080F85D30CA
:104C200080F85E3080F85F3006CA30B40D680469E1
:104C300043662A4383660A60A370426990F8613034
:104C40001649146813441D7A5B7B01EBC5051B02F2
:104C50006D6803F4E06343F064032B6090F8623006
:104C600013449D7CDB7D01EBC5011B02496803F405
:104C7000E06343F064030B6021685368194205D078
:104C8000036928225A70036903229A71036920225A
:104C90005A71036980229A7030BC704714E9010090
:104CA00043690CCB12681A420CD0094B99420AD9BD
:104CB000084B9942036994BF19220A225A7003696A
:104CC00003229A717047036928225A70F7E700BFE0
:104CD0007F1A06003F420F0010B50269D378DBB29D
:104CE000D90604463DD510215806D17038D503F0B9
:104CF000040303F0FF02002B51D03D49626E0023F4
:104D00000B7084F85D30002A5BD0904794F85D30DA
:104D1000002B56D02369D0229A70236994F83B2047
:104D20001A712369012284F85C200222DA7010BD16
:104D3000304B84F860009C424AD02F4B9C4252D0AA
:104D400094F8391013791F29DBB207D82848007866
:104D500020B16018013184F8391003760223D37032
:104D600010BD5906C3D4917801F0100101F0FF0085
:104D70000029DDD013F001031ED194F85C1094F8E3
:104D80005D00884281BF4B1C091984F85C3091F8A2
:104D90003B3013712369D0229A702269DEE72369C0
:104DA00084F83920C0229A702369114A19790121A7
:104DB00011700222DA7010BDC0239370226913793A
:104DC000CCE70122002384F85D2084F83B30A1E782
:104DD000626994F86130094913440322187A00F09B
:104DE000EBFC2269ACE7626994F861300449F3E7AF
:104DF000C0B8FF1F788AFF1FE48AFF1F614E0000C2
:104E00006D4E00000369DB7803F0200373B190F866
:104E100060300133DBB2012B80F860301AD942696F
:104E200090F861301344187A00F042BD70B54269C1
:104E300003F0FF0590F8613013440446187A00F03F
:104E400037FDA36E5BB184F8385094F83900BDE8A3
:104E50007040184790F85F30002BE0D0704770BD6D
:104E60000148FFF7CFBF00BF788AFF1F0148FFF757
:104E7000C9BF00BFE48AFF1F2DE9F047364FDFF8B6
:104E8000DC903B68026982B006460093DDF8008042
:104E900000217825D3789B065AD53B680193019B66
:104EA000C8EB03030F2BF5D949B1102BF2D000202A
:104EB0009070336980229A7002B0BDE8F087726901
:104EC00096F8613013440521187A00F0EBFE726900
:104ED00096F861301344012193F812A0504600F077
:104EE000E1FE09240021504600F0C8FE2B46013B9C
:104EF000FDD10121504600F0C1FE2B46013BFDD102
:104F0000013CEFD1706996F861100144F0220C7AEF
:104F10004B7B09EBC4011B02496803F4E06343F0D7
:104F200064030B6096F862300344997CDB7D09EBE7
:104F3000C1011B02496803F4E06343F064030B60A2
:104F4000013AFDD13269D3789B064FF00101A4D418
:104F5000012002B0BDE8F087C8B8FF1F14E90100C6
:104F6000F0B503691222DA700269937803F0200326
:104F700085B004460D46002B5ED0B42393703C49A7
:104F800022690B680093009E05E00B680193019B6A
:104F90009B1B042B42D8D37803F0200303F0FF00BF
:104FA000002BF2D094F85D30002B31D04FF0000E82
:104FB0004FF0020C04EB0E0393F83B3013710B68B7
:104FC0000393039F206907E09B060DD50B680293AE
:104FD000029BDB1B052B28D8C378DBB203F002024F
:104FE00002F0FF06002AEFD080F803C02669F378AC
:104FF000DBB2DF0632462DD49F062BD5DB0731D43A
:105000000EF1010E94F85D305FFA8EFE7345D1D833
:1050100000201DBB002384F85E3004E090702369FB
:1050200080229A70042005B0F0BD8670236980222A
:1050300004209A7005B0F0BD03F0FF06FFF71CFFD7
:1050400010B9042005B0F0BD236984F85F60B02278
:105050009A7094E78023B3700420DAE726698023EE
:10506000B370D7E7BEF1000F0CBF02200320F6E7B4
:10507000C8B8FF1F0148FFF72FBE00BF788AFF1F87
:105080000148FFF729BE00BFE48AFF1F844641EABA
:10509000000313F003036DD1403A41D351F8043BB0
:1050A00040F8043B51F8043B40F8043B51F8043B02
:1050B00040F8043B51F8043B40F8043B51F8043BF2
:1050C00040F8043B51F8043B40F8043B51F8043BE2
:1050D00040F8043B51F8043B40F8043B51F8043BD2
:1050E00040F8043B51F8043B40F8043B51F8043BC2
:1050F00040F8043B51F8043B40F8043B51F8043BB2
:1051000040F8043B51F8043B40F8043B51F8043BA1
:1051100040F8043B51F8043B40F8043B403ABDD210
:10512000303211D351F8043B40F8043B51F8043BB2
:1051300040F8043B51F8043B40F8043B51F8043B71
:1051400040F8043B103AEDD20C3205D351F8043B41
:1051500040F8043B043AF9D2043208D0D2071CBF0D
:1051600011F8013B00F8013B01D30B880380604636
:10517000704700BF082A13D38B078DD010F00303AC
:105180008AD0C3F10403D21ADB071CBF11F8013B1C
:1051900000F8013B80D331F8023B20F8023B7BE76B
:1051A000043AD9D3013A11F8013B00F8013BF9D296
:1051B0000B7803704B7843708B7883706046704730
:1051C000374A384913681B06FCD40B6813F0800378
:1051D000F8D172B634490A78002A5FD0334A34488D
:1051E000F0B4344C176806682568D4680C303E4427
:1051F000143200681268304F35442C442044024475
:10520000C2F34E022D4E2E482E4D2F4C42F400423A
:105210003A60376806682D682C4A24680C303E4492
:10522000006812682A4F35442C4420440244C2F3DB
:105230004E02284E2848294D294C42F400423A603B
:10524000376806682D68274A24680C303E44006899
:105250001268254F35442C4420440244C2F34E02C8
:10526000224E2348234D244C42F400423A603768D2
:1052700006682D68214A24680C303E440068126894
:1052800035442C4420440244C2F34E021C4842F4EC
:10529000004202600B7062B6F0BC704762B67047A5
:1052A00024B0034024B00B40C2B8FF1F38B0034005
:1052B0003CB0034040B003402CB0034058B0034022
:1052C0005CB0034060B0034064B003406CB0034086
:1052D00030B0034038B00B403CB00B4040B00B4006
:1052E00044B00B404CB00B402CB00B4058B00B40BE
:1052F0005CB00B4060B00B4064B00B406CB00B4036
:1053000030B00B4030B42948294A2A4B2A4D60243A
:10531000E121047011701B78284C082B30D00A2B27
:105320002748284937D00C2B0CBF15223D221223C9
:105330002A60236002600B60234B24491B78244AB7
:10534000BBB101230B601360224B23491B78234A16
:10535000012B26D9042B0FD9082B1ED9102B94BF53
:10536000862387230B6013601D4B01221A7030BC0B
:1053700070470B601360E7E784230B601360F3E76B
:1053800000F58E200F490830012213232A60236084
:1053900002600B60D0E71922F7E785230B601360EA
:1053A000E2E780230B601360DEE700BF00400740A8
:1053B00001400740508BFF1F08B003400CB0034072
:1053C00008B00B400CB00B40C5B8FF1F20B0034025
:1053D00020B00B40518BFF1F24B0034024B00B4082
:1053E000C2B8FF1F0C2830B417D91023984228BF29
:1053F00018461C46104A114D1178181A8C42287014
:1054000018D00F4913700B7823B10E490E4A0023B0
:105410000B60136030BCFFF775BF0A2802D90C235C
:105420001C46E7E7082802D90A231C46E2E70823BE
:105430001C46DFE730BC7047508BFF1FC1B8FF1F11
:10544000C2B8FF1F24B0034024B00B4028282FD837
:10545000334B2DE9F0411E5CFF2E2BD0314B1B78D6
:10546000002B2AD132062CD472B62F4D2F4C2F464A
:10547000012326602B7062B672B623681B060CD41B
:105480003B781BB9F4E72B78002BF1D062B601F022
:1054900097FF72B623681806F5D5254B1B680022C6
:1054A0002A7062B6234A107843FA00F0BDE8F08112
:1054B000002070470020BDE8F081FFF781FE320632
:1054C000D2D572B61C4DDFF87C801C4C06F040072C
:1054D000FFB206F03F06D8F80030DFB123F010032A
:1054E000C8F8003001232660134A2B7062B672B6EA
:1054F000236819060CD413781BB9ECE72B78002B22
:10550000E9D062B601F05CFF72B623681B06F5D5E0
:105510000B4BC3E743F01003C8F80030E2E700BFCD
:10552000D8E80100C2B8FF1FC4B8FF1F00B0034095
:1055300010B00340C1B8FF1FC3B8FF1F00B00B403D
:1055400010B00B400CB00B400A4A0B49136843F4EF
:10555000805313600B7843B9084BC0221A70084B74
:1055600080F30C0000B218807047044B80221A7040
:10557000F5E700BF2C800440C5B8FF1F21C00C40D8
:1055800000C00C40F0B51B4B1B4E596818689A6858
:10559000DB6885B06C460FC4337899071DD5174A70
:1055A000174C1378174913F0700318BF1370164A7D
:1055B000164B8027177000263320032226706D4675
:1055C00008701A7072B6043C45F001052046A847E1
:1055D00062B6237813F0700309D10D4B064901E040
:1055E000013B02D00A78D207FAD505B0F0BD23708E
:1055F00005B0F0BD04E901000100024000000240D6
:10560000040002400B000240070002400A00024072
:10561000410D0300B0F5006F0AD210B5094B1B789D
:10562000DB07044606D504F1A0500078C0B210BDD7
:1056300000207047FFF7A6FF04F1A0500078C0B229
:1056400010BD00BF01000240B0F5006F17D238B5A1
:105650000F4B1B78DA070D46044611D504F1A05014
:105660000378AB420AD00B4A137813F0700318BFCB
:105670001370074A05701378DB07FCD538BD7047F7
:10568000FFF780FF04F1A0500378AB42EBD1F5E7C0
:10569000010002400000024008B5104C08E02368F9
:1056A00059050DD423681A050FD42368DB0411D4DF
:1056B00023685803F3D500F0B9FC23685905F1D5E8
:1056C00000F00EF823681A05EFD500F009F82368FA
:1056D000DB04EDD500F004F8EAE700BF34800440B5
:1056E00008B5FFF7D9FF00BF014B10221A807047A1
:1056F00000200540704700BF704700BF10B40F4B3B
:1057000053F8302092F880422CB1012369B182F81D
:10571000803010BC704703EBC0035B681A6841B966
:1057200022F002021A6010BC704782F8003110BCEF
:10573000704742F003021A6010BC704714E9010080
:105740001C4A02EBC00301295B6811D004291BD05D
:1057500052F83000002280F8802229B1022920D09E
:10576000032922D01A6070474FF480721A60704784
:1057700052F830004FF4A27280F880121A601A6852
:1057800022F020021A60704752F830104FF4A272D3
:10579000012081F880021A601A6842F020021A6023
:1057A000704740F203121A6070474FF481721A601A
:1057B000704700BF14E90100212848D8F8B5042A31
:1057C00044D8DFE802F0484B4E0345004FF4102662
:1057D0002B4B03EBC0030D465C68216811F4E061BC
:1057E00048D0284B284A2949C3F89C2104F140425B
:1057F0002748C3F8A411A2F59221264FC3F8A001AF
:105800007C292548C3F8A871C3F8AC012CD9A2F5AE
:1058100094237C2B2AD9A2F596237C2B28D9A2F598
:1058200098237C2B29D9A2F59A227C2A27D81B48B9
:1058300072B6236823F4702343F08072C4F38401AA
:105840001643236040F82150266062B6F8BD7047C9
:105850004FF43026BCE74FF40026B9E74FF440265A
:10586000B6E74FF42026B3E70D48E1E70D48DFE740
:105870000D48DDE7FFF764FFB3E70C48D8E7F8BD54
:1058800014E901000082FF1FF188FF1F9988FF1FA4
:10589000C588FF1F6D88FF1F4188FF1F2C8CFF1FCD
:1058A000548BFF1F8C8BFF1FDC8BFF1F0C8CFF1F8B
:1058B0001A4B03EBC00010B4426802F14043A3F559
:1058C00092217C2923D9A3F594217C290DD9A3F514
:1058D00096217C291FD9A3F598217C2919D9A3F5F4
:1058E0009A237C2B11D80E4C00E00E4C72B6136834
:1058F0000D4823F08773C2F3840123F4803343F00F
:105900008073136044F8210062B610BC7047074CE6
:10591000ECE7074CEAE7074CE8E700BF14E90100B1
:105920002C8CFF1F8C8BFF1FF9560000548BFF1F20
:105930000C8CFF1FDC8BFF1F30B4054B054D064C54
:10594000002210211A602A602060196030BC704764
:1059500014D0034004D0034000D00340282838B5B9
:105960002ED0002904464FDD5F4B1B78012505FA38
:1059700003F28A4202D8212837D938BD0338C2B28F
:10598000012A3AD9202C4AD0192C48D0574A1268FB
:1059900002FB011222FA03F31D2800F29B80DFE8CC
:1059A00000F0928B847D9999766F9999999999993C
:1059B00099999968615A53994C99999999999945E6
:1059C000494B1B780B2B08D90C2B1CBF0C3B1941E6
:1059D0000846BDE83840FFF7B7BDC3F10C03994056
:1059E0000846BDE83840FFF7AFBD2946FFF786FE01
:1059F0002946BDE83840FFF7A3BE3D4A126802FBC6
:105A0000011222FA03F3C7E72128B6D80021FFF7D5
:105A100075FE20460121BDE83840FFF791BE354AAA
:105A2000126802FB011222FA03F3B5E73249334A46
:105A30000B604FF45173136038BD3149314A0B602C
:105A40004FF45173136038BD2F49304A0B6040F258
:105A50004443136038BD2E492E4A0B6040F2444344
:105A6000136038BD2C492D4A0B6040F2444313604B
:105A700038BD2B492B4A0B6040F24443136038BDBC
:105A800029492A4A0B6040F24443136038BD284933
:105A9000284A0B6040F24443136038BD2649274A28
:105AA0000B6040F24443136038BD2549254A0B6022
:105AB00040F24443136038BD2349244A0B604FF43D
:105AC0005173136038BD2249224A0B604FF4517361
:105AD000136038BD212C3FF650AF7F29D4BF002181
