:1000000000800020BD010000E15800009958000068
:10001000995800009958000099580000995800001C
:10002000995800009958000099580000E1580000C4
:10003000E15800009958000011730000157300008A
:10004000E1580000E1580000E1580000E1580000CC
:10005000E1580000E1580000E1580000E1580000BC
:10006000E1580000E1580000E1580000E1580000AC
:10007000E1580000E1580000E1580000E15800009C
:10008000E1580000E1580000E1580000E15800008C
:10009000E1580000E1580000E1580000E15800007C
:1000A000D1500000DD500000E1580000E158000090
:1000B000E1580000E1580000E1580000E15800005C
:1000C000E1580000E1580000E1580000E15800004C
:1000D000E1580000E1580000E1580000E15800003C
:1000E000E1580000E1580000E1580000E15800002C
:1000F000E1580000E1580000E1580000E15800001C
:10010000E1580000E1580000E1580000E15800000B
:10011000E1580000E1580000E1580000E1580000FB
:10012000E1580000E1580000E1580000E1580000EB
:10013000E1580000E1580000E1580000E1580000DB
:10014000E1580000E1580000E1580000E1580000CB
:10015000C5510000D9510000ED51000001520000CE
:10016000E158000005620000E1580000E15800007D
:10017000E1580000E1580000E1580000E15800009B
:10018000E1580000E1580000E1580000E15800008B
:10019000E1580000E1580000E1580000E15800007B
:1001A000E1580000E1580000E1580000E15800006B
:1001B000E1580000E1580000E1580000564B4CF2B5
:1001C000205210B51A804DF628121A8000BF00BFC9
:1001D00005F08AFB514B4FF010621A60504A9A604A
:1001E000504ADA60504A136813F4807304D14F49BF
:1001F0000B604FF4A85313604D4B1A78110703D5C9
:100200001A7842F008021A704A4B4B492A221A7097
:100210004A4A4B4B8B4204D252F8040F43F8040B6A
:10022000F8E7484B484900228B4202D243F8042B9E
:10023000FAE74649464A002352F8230041F82300D2
:1002400001336F2BF8D1434B434A802103F8011B44
:100250009342FBD1414B3D4A1A60414B8A221A70AE
:10026000A3F5805324225A70A0221A709A7992071B
:10027000FCD59A79D406FCD43A4A937903F00C035E
:10028000082B384BF9D105221A7143225A719A79F9
:100290009006FCD5334A9179324B4906FBD5324A58
:1002A0004FF0817111600521516020221A709A79F6
:1002B00002F00C020C2AFAD12C4B2D4A1A602D4B5D
:1002C0002D4A1A6000225A60072243F8042C2B4A58
:1002D000C3F80C2D62B605F043FC144B1B68DA071B
:1002E00005D5274805F028FC264B274A1A60274BDE
:1002F0001B785B0609D5234C234B22689A4204D114
:100300001F4805F019FC0023236005F0F3FA08F0FC
:1003100077FA05F0E5F9FEE70E200540308004404D
:10032000823F04000100002B10D0034014D0034092
:1003300002D0074000E007402892FF1FF875010037
:100340004088FF1F2892FF1F3CBCFF1F0082FF1F39
:100350000000000000E400E05FE400E008ED00E0E1
:1003600000500640004006404480044004800440A1
:10037000C010050014E000E03F190100000020203B
:10038000DC5080651CE00340A5C3945A00F0074090
:10039000FFFFFFFFFFFFFFFFFFFFFFFFFFFFFFFF6D
:1003A000FFFFFFFFFFFFFFFFFFFFFFFFFFFFFFFF5D
:1003B000FFFFFFFFFFFFFFFFFFFFFFFFFFFFFFFF4D
:1003C000FFFFFFFFFFFFFFFFFFFFFFFFFFFFFFFF3D
:1003D000FFFFFFFFFFFFFFFFFFFFFFFFFFFFFFFF2D
:1003E000FFFFFFFFFFFFFFFFFFFFFFFFFFFFFFFF1D
:1003F000FFFFFFFFFFFFFFFFFFFFFFFFFFFFFFFF0D
:10040000FFFFFFFFFFFFFFFFFFFFFFFFDEF9FFFF23
:1004100010B5054C237833B9044B13B10448AFF33E
:1004200000800123237010BD2892FF1F00000000F0
:10043000F4750100084B10B51BB108490848AFF32B
:1004400000800848036803B910BD074B002BFBD0A0
:10045000BDE81040184700BF000000002C92FF1FAD
:10046000F47501002892FF1F000000002DE9F04FF5
:10047000012187B00C2005F07FFDBF4B1B78002BBE
:1004800000F05381BD48BE4B0268BE4C196803683A
:100490002468BD4D1214194434F912402A880160B1
:1004A000016812048A424FEA441402DC03689A1A73
:1004B0000260B648B64B0168B64D1A6803682E68EC
:1004C000B54D09141A4436F911102B8802600268E0
:1004D0001B0449019342019102DC0268D31A0360B4
:1004E000AE4FAF4B3868AF4A1D881B88AE4E01999E
:1004F00002FB00F202F54052ADB29BB23932C5F5B3
:100500007A7501FB03F396F8290022F0004204FB00
:1005100005F49B123A6003EBA423002800F0B78097
:10052000A24EA34D3678D5F80080DFF8B892DFF8F8
:10053000B0C2A04FA04DDFF8B4E2D9F80010DCF84B
:1005400000B0D7F800A09D4F9D4CDFF8A4C2D4F8AE
:10055000009042F3942206FB02F285FB02560496B9
:10056000DEF800603D68059526608BFB0645CDE909
:100570000245049CDCF80060D217C2EB641288FBD1
:1005800002458AFB09ABDDE902893A604246120D59
:100590004FEA1A5881FB066748EA0B3842EA0932EB
:1005A0004244360DDFF84C820599CCF8001046EA3B
:1005B0000736240D44EA0534B51A98F80020814E18
:1005C0002C4404FB02F286FB021541074FEAE2725B
:1005D000CEF80040C2EBA50200F1AA8000F00300B3
:1005E000022800F0BD80032800F0A980764B1C682B
:1005F00082FB0423120D42EA0333744A74491268E1
:100600000C8883FB0223110D41EA033194B3DFF818
:10061000E8E1DFF8E8C1DEF800506E4A5CF825300A
:1006200016686D4ADFF8D8811288D8F8000083FB7D
:100630000667330D694E43EA073301FB02F21844A3
:10064000D2113668C8F8003002EB6002681CB04274
:100650004CF82520A8BF0022CEF8000004FB03F3CD
:10066000A8BFCEF80020C4F18002DB1101FB02F12B
:1006700003EBE111491201F5FA61282005F0ECFACB
:1006800000210C2007B0BDE8F04F05F075BCB28D1D
:10069000002AB2D04548464A90F80090504D106864
:1006A0004449454A4F4C464FDFF840E12468DFF8A3
:1006B00040C1D5F800800E684049DEF80050D1F8FE
:1006C00000A003FB09F382FB03B9DB17C3EB69133B
:1006D000D7F800B00B60DCF800103D6088FB05899E
:1006E00086FB0B6784FB01454FEA185880FB03012A
:1006F000330D43EA073348EA0938240D3A4FCCF862
:1007000000A008EB030644EA0534030D43EA013375
:10071000A01B3978184400FB01F182FB0123C917A3
:10072000CEF80000C1EB631367E74FF4FA61A4E76A
:10073000019982FB0145220D42EA05324EE722492A
:1007400008680C68C0F5801083FB000182FB04235D
:10075000000D120D40EA013042EA033213184CE753
:1007600019490C6882FB0445200D40EA053003441A
:1007700003EBD3735B1040E778B9FF1FDCB8FF1FB2
:100780008898FF1FAC98FF1FF4B8FF1FC098FF1F89
:100790007CB8FF1FB098FF1FA6B8FF1F2C89FF1F52
:1007A0007A98FF1F6D4EC64108B9FF1F41B8FF1F61
:1007B000A898FF1F1094FF1F1F85EB514892FF1F41
:1007C000A098FF1F6766666600B9FF1FE4B8FF1FA9
:1007D0008C98FF1FB0B8FF1F80B8FF1F8CB8FF1F99
:1007E0000C94FF1F5C98FF1F7D98FF1F9C98FF1FB4
:1007F0000494FF1FE9B8FF1FD898FF1FE498FF1F5C
:1008000060B9FF1F10B5044604F0BAFC204610BDC5
:100810002DE9F043142085B02A4C2B4EDFF8BC8024
:10082000DFF8BC90294F04F037FE236801931FFACC
:1008300080FE01993160A8F800E0A9F800E02546A3
:1008400009E02B680393039AA7FB02039B0803EBC1
:1008500083039A421ED023680293029B5B1AC72B24
:10086000EFD91B481B49A0F800E0AEF13C0340F271
:1008700074409BB28342184A0EF1200488BF0020C6
:100880000EF1180E98BF01200C80A2F800E005B010
:10089000BDE8F083B9F80000AEEB900E1420A8F884
:1008A00000E004F0F9FDB8F8003031680028B8BF66
:1008B000033003EBA00E1FFA8EFEA8F800E0A9F8A3
:1008C00000E0C8E788B9FF1F7CB9FF1FCDCCCCCCB6
:1008D0007898FF1F94B8FF1FE0B8FF1FB4B8FF1F40
:1008E0004EB9FF1F08B5082005F04CFB10B9074BA7
:1008F0001B782BB900210620BDE8084005F03CBB61
:1009000001210620BDE8084005F036BB6CB8FF1F8A
:10091000F0B55B4A137885B0002B75D0594B5A4A15
:100920001B6813F4007F136855D1272B57D85748FD
:10093000574B0168574C33F81110574DB4F900303C
:1009400089B2B1F5FA6F25F8131054494FF001053B
:100950000E8805FA03F5ACBF354326EA05050D8080
:1009600001331BB2092B23804A4C75DD4C4D09889D
:100970002E8800238E4223804A4C78D023604A4E32
:100980004A4C33680293029B276836680396484EA8
:100990002980DB1B03993380072321600360132127
:1009A000444B454D374C454F454E03EBC1030021A9
:1009B0005B6819602B6843F020032B602160056899
:1009C000404941480123AB403B6000233060216037
:1009D000136005B0F0BD0133272B1360F9D92B4804
:1009E0002C4C2E49DFF8A8E00568B4F900303EF839
:1009F00015500E88284F01259D4042F20F7E354349
:100A000027F813E00D80ABE72A492048D1F89C1065
:100A1000294D1C4CDFF8A4E02B4F072606600B6025
:100A20002968274E41F02001296023600168254D87
:100A3000012000FA01F1CEF800101B493760256053
:100A400009680191194D134C0F49019E10702E60D9
:100A500023800B6005B0F0BD1C491D4CC95C635C74
:100A600003600F2B9CD90023136005B0F0BD2368F1
:100A70000133022B236082D9164B19807FE700BF18
:100A8000A3B8FF1F00500440CCB8FF1FD4B8FF1F0D
:100A900000510440ACB8FF1F54B8FF1FD0B8FF1F6F
:100AA00004B9FF1F4492FF1F88B9FF1F30B8FF1F12
:100AB000A0B8FF1F50700100388004400850044067
:100AC0000450044080014A0000000203DCF00000F2
:100AD000302801000894FF1FC0F30123022B10B43B
:100AE00030D0032B0CBF0C230023C0F34602164C5E
:100AF000A25C1344183ADBB2D2B200F00101182A0A
:100B000003F11800C0B207D8104C24FA02F2D20741
:100B100002D509B11933D8B20D4B10BC1A8883B273
:100B20001A4492B2A2F10C0154299CBFD0B21346D0
:100B3000084A12881A4492B2A2F10C03542B98BFAF
:100B4000D0B270471823D0E7E0CF00002110020197
:100B50006EB8FF1F9898FF1F08B5052005F012FA20
:100B600090B9134A13491368086005332D2B13609D
:100B700018D9114A01231370104A117811B910497C
:100B800001200870137008BD0A4909480A68053237
:100B900000235F2A0A60036004D90749074A0B70E3
:100BA000137008BD044B1B78002BE5D1034AE9E71D
:100BB000CC98FF1F6098FF1F6A98FF1F58B9FF1F4E
:100BC00038B8FF1F1349144B144A08881B88D28970
:100BD0001B1AC3EBC313101ADA0183B292FBF3F3AF
:100BE000002B11DBB3F57E5F10DD4FF47E230C4943
:100BF0000A68002A1046B8BFD01CA2EBA000184417
:100C00000860C0F30F2070470023F0E71B029B1021
:100C1000EDE700BF7898FF1FB4B8FF1F1894FF1FBF
:100C20005098FF1F70B5064D05F12C062C46601B31
:100C300004F014FD04F8010BB442F8D170BD00BFFC
:100C40001894FF1F70B5064C04F12C06E54314F808
:100C5000011B601904F01CFDB442F8D170BD00BF47
:100C60001894FF1FF8B50E2004F016FC40F6E4437C
:100C700003FB00F00028B8BF00F6FF703F4C0313E1
:100C80000420238005F07EF9002850D13C4E3378B3
:100C90001BB93C4B1D78002D5DD00021072005F0CD
:100CA0007FF941F2883005F0A5F9374F374D21889B
:100CB000EA7A40F68C23002A40F2BC7040F6980293
:100CC00008BF1A4640F67E1318BF034600208A422A
:100CD00038702D48C4BF012202709942BCBF012365
:100CE00033702B4B1B7813B9264B1E7846B1EB7A29
:100CF000264A23B1218840F65433994211D8F8BDD1
:100D0000244B1B68782BF2D93146032004F0A4FF52
:100D10003146072005F044F941F2883005F06AF9C0
:100D2000E5E70023D372BDE8F840FFF78BBF1A4A0E
:100D3000144E164D0123002103201370337004F06C
:100D40008BFF0021072005F02BF90F490C4A0023E7
:100D50000B701370C5E7104B0B4F1D70012107205E
:100D600005F01EF92946072005F006F93B78002B0F
:100D70009CD1CC21032004F06FFF97E7D8B8FF1F68
:100D80004CB9FF1F8498FF1FB498FF1F1894FF1FD2
:100D9000A4B8FF1FB898FF1F40B8FF1F104A114B9F
:100DA0001149F0B400201360104F9762012302260E
:100DB0000A2540F6FF7413715371D37213731672C0
:100DC0009572D4819071507202F11003203211F8A3
:100DD000010F23F8020F9342F9D1F0BCFFF732BFA5
:100DE0001894FF1FCEFAEDFE1F89FF1FDEC0DBE067
:100DF00038B572B61349144A144C00230C200B70FA
:100E0000137005F027F840F283321149204604F0B0
:100E10006DF921680122227121B10E4B0E480B445D
:100E20001B111A540D4A0E4C0E490F4B0F481060FF
:100E30004FF4C8655A201322256008801A8062B6D4
:100E400038BD00BF78B9FF1F7098FF1F44B9FF1F5E
:100E50006D040000008FFCBF44E400E0B0B8FF1F49
:100E60008CB8FF1F80B8FF1F8C98FF1F003509004A
:100E7000F8B5484A484E137E484F494D494C4A48B8
:100E800000213170397014262821172B2E70217003
:100E900001700DDC4548464E464D474C03EB43037D
:100EA0009B00C118C75A48688B6837802860236048
:100EB000537E172B0DDC3D48404E414D414C03EB1A
:100EC00043039B00C118C75A48688B683780286065
:100ED000236092F822303C4F3C49908D3C4E3D4C73
:100EE0003D4D1B0587FB03235B0900220A6033602D
:100EF00007F01CFA394907F025FB0146064607F0C2
:100F00006DFA4FF09341074607F068FA07F02CFCA2
:100F1000334B4FF07C511860384607F05FFA4FF0C2
:100F2000934107F05BFA01464FF07C5007F04CF913
:100F300007F01AFC2B4B2C4A18601B685B423146A9
:100F40003046136007F042F904F5D8760746274982
:100F500009E054F8040F07F0F5FA254907F03EFAC6
:100F600006F04AFA0146384607F038FA4FF0934146
:100F700007F034FA07F0F8FBA6421E4945F8040FC3
:100F8000E7D11D491D4B00204FF4002208601A6074
:100F9000F8BD00BF08B9FF1F78B9FF1F7098FF1F89
:100FA00041B8FF1F7D98FF1FE9B8FF1FE0940000C4
:100FB000F4B8FF1FC8B8FF1FAC98FF1FA6B8FF1FEB
:100FC0004894FF1FB098FF1F1F85EB51F8B8FF1F13
:100FD000C898FF1F28EF00004892FF1F00401C46E2
:100FE0001094FF1FA898FF1F5C98FF1FC9FF7F3F49
:100FF000DB0FC94000401C4700B9FF1FE4B8FF1FCA
:1010000010B5B8B1214A0A21002301E032F83A1C98
:10101000884202F13A0236D00133142BF6D1002374
:101020004FF0FF341A491B483A2202FB031104F027
:101030005FFB00E00446174B16491A8E042A9CBF3A
:1010400005221A869A8E042A9CBF05228A86DA8E89
:101050001049042A9CBF0522CA869A8C0D49042A8D
:101060009CBF05228A84DA8C0A49DB8B042A9CBF48
:101070000522CA84042B074A9CBF0523D383FFF7AC
:10108000F7FE204610BD0024CCE700BFBAC1000027
:1010900080C1000008B9FF1FF0B565480278002A3A
:1010A0003CD0644C644B94F83820644E644F6549DE
:1010B000DFF8ACE1658E120583FB0232520982FB38
:1010C0000223120D42EA0333002232705E4E3B606F
:1010D00002700A60CEF80060002D44D033465B4DAC
:1010E0005B48228E93FBF2F301222B600280594A67
:1010F000DEF800501368AB4238DB0B68248E514E8B
:101100004C4F0133A3420B602CD37B8E1560002221
:101110003260002B31D002230380F0BD474C23788E
:10112000002B2FD043494C4BCD8E4C4E227045495D
:1011300047480A60A3FB05439B08052433600480ED
:101140000126444A414F146894FBF3F39BB19C423F
:101150003B60A4BFE31A1360B6EB450F10D3002326
:101160000B600380F0BDCEF80030B8E7374E36682C
:1011700033441360C1E70123E9E704230380F0BD92
:101180000E60F0BD3248B0F90030052BEAD801A25C
:1011900052F823F0AD11000025120000ED110000FF
:1011A000B51100006511000015120000294B002246
:1011B0001A60F0BD224B274A1C681568274B291B73
:1011C0001B6891FBF3F3214903B901231C44A54299
:1011D0000B60A4BFEB1A13601A4A16491368898E74
:1011E0000133B3EB410F1360C7D2F0BD154A11496B
:1011F00013684C8E0133A3421360B3D38B8E164910
:10120000164DA1FB03139B08002403212B601460DF
:101210000180F0BD0B49114B064A0E681B68D58E44
:1012200001368EE70749034CDFF834E05FE700BF83
:10123000FCB8FF1F08B9FF1F1F85EB518E98FF1FD9
:10124000E098FF1F5CB9FF1FFFFF0F00D098FF1F42
:1012500082B8FF1F5498FF1FCDCCCCCCF0B8FF1F35
:101260009498FF1F154B1B7A022B08D0012B1BD023
:10127000134B1B78A3B1134B134A13607047104BE9
:101280001B7813B1114B1B681B1111490A68A2EBA3
:10129000221213440B60B3F5801FECDA132BEBDC46
:1012A000094A0023136070470A4B0B4A1B681068F9
:1012B00083FB0001030D43EA0133ECE71894FF1FA1
:1012C0007098FF1FFFFF0F00E4B8FF1FD498FF1FA7
:1012D000BC98FF1F5498FF1F44B8FF1FF0B5294C5E
:1012E000294D94F82830294E29781B0586FB0323C5
:1012F0005A09B9B194F82210DFF89CE02448254F30
:10130000090586FB013149090023CEF800100121AF
:1013100003602B703980A18C1A4C99421BD905337C
:101320000360F0BD1B4F1A48B7F90030022B05D0FF
:10133000032B0CD1184903680A60F0E7E28C0368BC
:101340009A4215D8032205333A800360F0BD012B81
:101350000368E4D1DFE7104B10491B68E48CD31A13
:10136000022593FBF4F205233D800A600360F0BD83
:1013700009490A4A0C681268053322440A6003606E
:10138000F0BD00BF08B9FF1F4DB9FF1F1F85EB510E
:1013900054B9FF1F2CB8FF1FC898FF1F70B9FF1F5B
:1013A0002A4AB2F9003030B4EBB9294829492A4C0D
:1013B0000078CD8B4FF4A00191FBF5F1216080B155
:1013C000264927480B60012103601180254B1978BD
:1013D00039B1224D224C0021012029601970216071
:1013E000108030BC7047012B05D0022B16D0002393
:1013F000138030BC70471A4916480B68C08B98425E
:101400001CD813490223097813800029DED1154B1B
:1014100018780028DDD1118030BC70470F49124880
:101420000B68834203DC0C48006803440B600F48E0
:101430008342074B07DD08601978E6E70448053367
:101440000B600178E1E71978DFE700BF9098FF1F94
:101450007098FF1F08B9FF1F24B8FF1F74B9FF1F42
:101460006C98FF1F50B8FF1FFEFF0F00FFFF0F001B
:101470002A4A92F82030012B19D0022B22D0032BBC
:1014800040D0042B08D092F82130254A03EB830387
:101490005B009BB213807047224B1A684FF47A733B
:1014A00003FB02F31B151E4A9BB2138070471E4BB1
:1014B0001A684FF47A7303FB02F31B15184A9BB2A8
:1014C000138070471949537F0A6819481949006801
:1014D00002FB03F381FB0312DB17C3EBE21380FB78
:1014E0000301030D43EA013303F5801303EBD373C8
:1014F0005A104FF47A7303FB02F31B15084A9BB290
:10150000138070470C4B1A684FF47A7303FB02F395
:101510001B15034A9BB21380704700BF08B9FF1F19
:101520007A98FF1F6CB9FF1FC898FF1F74B9FF1F7F
:10153000F8B8FF1FB5814E1BD498FF1F234A92F8BD
:101540002A3013F007030AD192F8293003F003037D
:10155000023B012B0FD91E4B1E4A1A607047012B0C
:1015600013D0022B16D0032B24D0042B28D0184BD9
:1015700000221A60704792F821301749144A1B055F
:1015800081FB03135B0913607047144A104B126808
:101590001A607047124B527F1B680F490C4803F5C5
:1015A000801302FB03F381FB0312DB17C3EBA213CF
:1015B000036070470B4B064A1B689B101360704713
:1015C000094B034A1B685B101360704708B9FF1F83
:1015D00000B9FF1FFFFF0F001F85EB515498FF1F3D
:1015E000F8B8FF1FD498FF1F6CB9FF1F324A92F85A
:1015F0002F302BB3314B92F82E101B780C3B5B181D
:1016000020D592F829202C4900231ABB91F82B20D1
:10161000012A2AD0022A3DD0032A2FD0042A1DD124
:10162000274A126802EBD27252106C2101FB02F2BF
:10163000A3EB22536C2BD4BF23EAE3736C230DE09E
:1016400092F82E3092F829201B496C2BA8BF6C23EE
:10165000002ADBD012F0040F18BF002319491A4AE0
:1016600051F823305B4213607047184A11683622E4
:1016700002FB01F203EB22531B3BDBE7144A126827
:10168000002AB8BF033292106C2101FB02F203EB77
:101690002253CFE70F484A7F01680F4801FB02F24F
:1016A00080FB0201D217C2EBA1126C2101FB02F2F6
:1016B00003EB2253BEE700BF08B9FF1F7C98FF1F52
:1016C0006CB9FF1F4C92FF1F0C94FF1FC898FF1F9F
:1016D000D498FF1FF8B8FF1F1F85EB5100F580134A
:1016E000B3F5001F15D8B0F5801F15D0D8120C49DE
:1016F000421C31F8100031F81220C3F30223121AF1
:1017000003FB02F3002BB8BF073300EBE3008001BB
:1017100070474FF4801070474FF40010704700BFBF
:1017200074360100782838B55CD90C38C0B2304A1C
:10173000304B107030490C38096853F8200006F01F
:1017400001FF2E4B2E49B3F91A5081FB0523EA17EE
:10175000C2EBE3124FF4966303FB12531B050446DE
:1017600081FB0320DB17C3EBE010FFF7B7FF06F0A8
:10177000E1FD4FF0565106F031FE214606F02EFEF7
:10178000204B0546188806F0D5FD214606F026FEBA
:101790004FF08F4106F022FE1B4906F0D3FE06F003
:1017A000E3FF1A4B04461968284606F0CBFE184B97
:1017B0000546188806F0BEFD0146284606F00EFED6
:1017C0004FF08F4106F00AFE0F49124D06F0BAFEA7
:1017D00006F0CAFF1049114A114B2C600C601060D2
:1017E000186038BD0B289CBF0C30C0B29FE700BF0B
:1017F0007C98FF1F28EF0000C8B8FF1F08B9FF1F23
:10180000B5814E1BF4B8FF1F00401C474894FF1FD2
:10181000A6B8FF1F8898FF1F48B8FF1F74B8FF1FA6
:101820007CB8FF1F2DE9F041204D2C7834B1FFF733
:1018300079FF1F4B01221A70BDE8F0818846FFF73F
:1018400071FF1C4A1C48137F92F822601B491C4FF1
:10185000DFF888E01B0280FB0330800840F2EC4395
:1018600003FB00F0360587FB00C781FB0661C0174C
:10187000144EC0EBA710490930604FEA48321248B5
:10188000CEF800100A49046082FB02230C70120D8E
:101890000E4E0F480F49104F42EA033201233370B6
:1018A00003700B703A602B70BDE8F0817098FF1FD9
:1018B00050B8FF1F08B9FF1F676666661F85EB51AA
:1018C000D34D621088B8FF1F5498FF1FFCB8FF1F4C
:1018D0004DB9FF1F78B9FF1F44B8FF1FC898FF1FFD
:1018E000F8B5304B1878012841D002280CD00028D8
:1018F00056D12D4B1A78012A49D0032A4CD0002802
:1019000042D1002A40D1F8BD284A294B11685B7F9B
:10191000284A01FB03F382FB0312DB17C3EBE2133C
:10192000214A1278002AE6D1234A126882FB032357
:10193000100D40EA0330FFF7D1FE2049204C0B6820
:10194000204A24681268204F204EA3EBE30303EBE8
:10195000E00084FB004580FB02230860120D210D8E
:1019600041EA053142EA033239603260F8BD184B72
:101970000F4A1968527F0F4B01FB02F283FB0213DF
:10198000D217C2EBE313CBE74FF48010D5E7114B2E
:101990001868FFF7A3FED0E70020FFF79FFECCE713
:1019A0000023BDE76DB8FF1F50B9FF1F74B9FF1FBB
:1019B00008B9FF1FB5814E1BF8B8FF1F2889FF1F0C
:1019C00048B8FF1F74B8FF1F8898FF1F7CB8FF1F1F
:1019D0006CB9FF1F68B9FF1F38B5FFF75DFB1749EA
:1019E000174B0A681B681748174C134483424FEA89
:1019F0002225C4BFA3F59D23A3F5806334F91520E8
:101A00000B60124B52011A60FFF72CFC104A13684E
:101A10000133052B01D0136038BD00231360FFF79D
:101A20005DFCFFF7BDFCFFF75BFFFFF721FDFFF754
:101A300085FDBDE83840FFF7D9BD00BFECB8FF1FFA
:101A400088B8FF1FFFEB0400581B0100F8B8FF1F08
:101A50008098FF1F38B503F0BBFD064B064A0749C7
:101A6000802400251C7118461D60BDE8384006F032
:101A7000A1BB00BF44B9FF1F1C89FF1F0508000060
:101A800070B50C4C0125064678232046802184F849
:101A9000633084F8AE5084F8AD5003F0CBF8314693
:101AA000204603F0C7F829462046BDE8704003F001
:101AB00085BA00BF388BFF1F2DE9F04FB34BB44EF2
:101AC0001C88377983B02046FFF706F814F4407F6E
:101AD000804621D014F0E00F1ED0AE4D2B78012BA4
:101AE0003BD064D2AC4AAD4B12881B889A425AD381
:101AF000AB4C2378002B40F042810123A94C2B7082
:101B00000523A949A9480A682360002505320A600F
:101B1000056003B0BDE8F08F9E4D2B78012B1CD0E3
:101B200041D3022B10D19C4AA14B12881B889A42A8
:101B30007FD2A04BA048A14A1B7801240021047049
:101B40001170002B40F0B980964C236800220533B9
:101B50002A70236003B0BDE8F08F93489349B279AF
:101B6000002303600B60A2B9954B8E4C40261E707B
:101B700031464046FFF756FE8E4B1B78002B40F057
:101B8000AD80904A236882F80080022205332A70D3
:101B9000DFE7844C23680E2B00F2DE8005332360E0
:101BA00003B0BDE8F08F7F4C23680533A9E7022B13
:101BB000CAD17F4A784B12881B889A42B9D8DFF87D
:101BC00004B29BF80090C84533D0DFF8F4A1794CFB
:101BD0009AF8003001931946FFF724FE25782DB3BB
:101BE0007279019B002A40F0FF804FEA094000F41F
:101BF000FE007D1E40F400402D0205F4706540F0AB
:101C00000800284305F010F89AF800301B0603F08E
:101C1000FE4343F410434FEA084243F009032B43C9
:101C200002F4FE00184304F0FFFF25788BF80080D3
:101C300001E0604C2578FEF7C5FF634B1A88A2F6D9
:101C4000B833002BC0F28F8060494FF47A5202FB08
:101C500003F281FB0263D217C2EBA31303FB03F36E
:101C600081FB0321DB17C3EBA1239AB2B2F57A5FA4
:101C70007DD94FF47A2E7D2600FB00F35449DFF81E
:101C80005C81DFF85CC19A0B93018B4228BF0B4645
:101C9000C8F800304F4BCCF800E04FF00008C3F814
:101CA00000807DBB414A1368053313603D4C2368B7
:101CB0000533236003B0BDE8F08F424B1B781B0453
:101CC000781E03F4FE03000243F4004343F00803CC
:101CD00000F47060184304F0A7FF35E77B1E1B0279
:101CE00003F470634FEA084243F41043300602F4F1
:101CF000FE0243F00903134300F0FE40184304F0D2
:101D000093FF3EE77D1E2D0205F47065400445F407
:101D10002C3343F00B03254F00F0FE40184304F032
:101D200083FF3B68227805333B60002ABED01D2B21
:101D3000BCD9330645F4D83003F0FE4340F00B0025
:101D4000184304F071FF2448164C284304F06CFF3C
:101D50002368C7F8008021E7FEF734FF184BC0F373
:101D6000C7161E7004E74FF0000E764684E7DFF8D2
:101D700074E09A0102EA0E0EC3F3C8167CE7AE20A7
:101D8000FFF77EFE00232370B7E600BF0894FF1F15
:101D90001894FF1F7E98FF1FB4B8FF1F94B8FF1F51
:101DA000F6B8FF1F4C94FF1FC0B8FF1F90B8FF1F6D
:101DB000E0B8FF1F40B8FF1F8E98FF1F7098FF1FED
:101DC000A2B8FF1F64B9FF1FE2B8FF1FD34D621016
:101DD000FFFF0F0068B9FF1F0EE00040D498FF1FFF
:101DE0006CB9FF1FC0FF3F001B0603F0FE437D1EC2
:101DF00043F410432D0205F4706543F009034FEAE4
:101E000008402B4300F4FE00184304F00DFF9BF83C
:101E10000000000400F4FE0040F4004040F0080020
:101E2000284304F001FF257800E700BF2DE9F041C9
:101E3000894B1C78002C3CD1884B1B78002B38D167
:101E4000874B1A78AAB3874D874E88492A781C7029
:101E500096F80C800C6072B3854F3D888DB3B5F554
:101E6000407F4BD0B5F5007F3FD0B5F5807F4AD09D
:101E7000C02D52D0802D2FD0402D53D0102D5AD0B0
:101E8000082D6BD0012D77D0202D00F0A580042DDA
:101E90007ED0022D00F0B680062D00F0AA80302DF5
:101EA00000F0D580212D04D1724B01221A70BDE8BB
:101EB000F081BDE8F081AF20FFF7E2FD01232B7038
:101EC000CAE7FEF795FF6C4B0D221A7029460620D3
:101ED000BDE8F04104F050B8684AB2F900300A2B6E
:101EE000E7DC01331380BDE8F081654AB2F90030C8
:101EF0000C2BDEDC0C331380BDE8F081604B00223C
:101F00001A80BDE8F0815E4AB2F9003013F10C0F7F
:101F1000CFDB0C3B1380BDE8F081584B00221A80C8
:101F2000BDE8F081554AB2F90030012BC1DD013B1B
:101F30001380BDE8F08108F10108B8F1070F8CBFEC
:101F40004FF000085FFA88F406EB4803588AFFF761
:101F500057F83473BDE8F041FEF774BE08F1FF3462
:101F6000A4B223B2013315BF04F0070407232346AC
:101F70001C4606EB4303E9E7737A3B4A33BB012374
:101F80005372FEF75FFE3F4B727A1A70BDE8F08124
:101F90003D4DB07A00222946134601E011F8012F89
:101FA000904203F101034BD0082BF7D1B472FEF736
:101FB00049FEB37A642B3FF67CAF3449344ADB01E7
:101FC000A1FB03135B091380BDE8F081012B0CBF5B
:101FD000022300235372D4E7F37983F00103F371F2
:101FE000FEF730FEF3793BB32A4B01221A70BDE8AD
:101FF000F081F27A1C4B3ABB0122DA72BDE8F04163
:10200000FEF720BE082003F0BDFF014608B13D8861
:1020100042E7214B1A78002A0CBF012200221A70D5
:1020200005D101210620BDE8F04103F0A5BF06203F
:10203000BDE8F04103F0A0BF164A1370BDE8F0817F
:10204000082B18BFEC5CB1E70022DA72D6E7134B1D
:102050001B88F381D2E700BF7E98FF1FA4B8FF1F43
:1020600038B8FF1FF6B8FF1F1894FF1FB898FF1F5E
:102070000894FF1F4CB9FF1F65B9FF1F9898FF1FF9
:102080006EB8FF1F6DB8FF1FE8F000001F85EB5111
:102090008C98FF1F50B9FF1F6CB8FF1FB4B8FF1F0B
:1020A00008B5AE20FFF7ECFCD520FFF7E9FC802057
:1020B000FFF7E6FCA820FFF7E3FC3F20FFF7E0FC7A
:1020C000D320FFF7DDFC0020FFF7DAFC4020FFF70C
:1020D000D7FC8D20FFF7D4FC1020FFF7D1FC202087
:1020E000FFF7CEFC0020FFF7CBFCA120FFF7C8FCD8
:1020F000C820FFF7C5FCDA20FFF7C2FC1220FFF76B
:10210000BFFC8120FFF7BCFC8020FFF7B9FCD92081
:10211000FFF7B6FC2220FFF7B3FCDB20FFF7B0FC93
:102120004020FFF7ADFCA420FFF7AAFCA620FFF794
:10213000A7FCAF20BDE80840FFF7A2BC2DE9F041A5
:102140001F4E4FF0B00878274046FFF799FC002556
:102150000020FFF795FC05F11000C0B2FFF790FCDE
:1021600001244021164886F8637086F8AE4086F850
:10217000AD4002F05FFD00E00134082D4FF000019A
:102180000F4809D002F056FD102CF5D101210C4862
:102190000D4402F013FFDBE7631E032B03D802F0AC
:1021A00049FD102CE8D108F10108012104485FFA2B
:1021B00088F802F003FFB8F1B80FC5D1BDE8F0818F
:1021C000388BFF1F70B50C4B002103F5806223F89C
:1021D000021B93424FF00004F9D1FFF7AFFF07480D
:1021E000074E0849084A094B04700125082035703C
:1021F000087014801C8070BD5094FF1FBCB8FF1F76
:10220000C4B8FF1F39B8FF1FDC98FF1FDE98FF1FFF
:102210002DE9F04F89B03F2A0390BDF8480000F245
:102220008E80D4085FFA84F8154628443F28C4BF3E
:10223000C2F13F0215FA82F07F297CD80D090A46C7
:1022400002951344802BC4BFC1F1800312FA83F3BB
:10225000421E48BF821DD210B3F10109019248BF4E
:1022600003F10E09019BA3424FEA291960DB012704
:1022700048F0B000FFF704FC029A914550DB02EBF6
:102280008415039B314E083503EB450514460DF1CB
:102290001E0A05F180000DF10E022B4633F8101CCA
:1022A00022F8021F10338342F8D10220FFF7E8FB27
:1022B00004F00F001030FFF7E3FB782340212348A0
:1022C00086F8AE7086F8AD7086F8633002F0B2FC26
:1022D0004FF0100B0DF10E030120002133F8022FF7
:1022E0004FEA420E120448BF01434FEA400C9A45A0
:1022F0005FFA8CF0A3F800E0F0D114480BF1FF3B3B
:1023000002F098FC1BF0FF0BE4D1013401210F48CF
:1023100002F054FEA14503DB082C05F10205B8D1FB
:1023200008F10108019B5FFA88F8434544469FDAAB
:1023300009B0BDE8F08F00221146029281E74FF00C
:1023400000084546444642466FE700BF388BFF1FF2
:102350002DE9F04F5F4A604B128889B01446029213
:102360001A8803917F2C944600F39A80234604F048
:102370000F094FEA141819188029C1BF0299C1F139
:10238000800080B21918B1F1010E48BF01F10E0EA4
:1023900003464FEA2E1E0DF10E010DF11E0500241D
:1023A00021F8024FA942FBD1F04513DC0F28D8BF1A
:1023B00041467CDD04A901EB48044FF6FF75414618
:1023C00001E00F2B73DD01318E4524F8025BA3F190
:1023D0001003F6DAB9F1000F1CD004AB03EB480A86
:1023E000AAF1020A03EB4E060027F0450FDC514626
:1023F000002531F8023F03F001045B081DB16FEACC
:1024000043436FEA5343B1420B802546F1D1013774
:102410004F45EAD1039B03EB020B5A4534DA3F2ABE
:1024200032DC2E4B2E4908EBC20903EB49090B782D
:1024300004A9A9F1020901EB480AF0451BDC564644
:102440004D46444609E021EA07010134A6452980AA
:1024500006F102060FDB082C0DD0012B35F8021F08
:1024600037881BD0002BEED001347940A645298057
:1024700006F10206EFDA0CF1010CE34504D0BCF1E1
:10248000400F09F11009D8D1039B0093029903462C
:102490001248FFF7BDFE09B0BDE8F08F3943D4E71D
:1024A0004FF00009C846CDF808904B4663E7002B73
:1024B00090D0490008AC0C44002534F8104C01358C
:1024C00064109D4244F40044F9D108AB194421F84A
:1024D000104C7FE7DC98FF1FDE98FF1F5094FF1F12
:1024E000C4B8FF1F2DE9F04F1C4E1D4F34883D88A6
:1024F0001FFA80FB1FFA81FAABF1020283B092B29D
:10250000631CAAF102099BB210461FFA89F9012146
:1025100005F101080192338000931FFA88F8FFF754
:1025200017FF494601203480A7F80080FFF710FF0D
:10253000019A009B3380013D1046554401213D80A6
:10254000FFF706FF013C5C4449460120A7F80080E4
:10255000348003B0BDE8F04FFFF7FABEDC98FF1FF0
:10256000DE98FF1F2DE9F04F7C4C7D4B24881B88A3
:1025700093B07F2C0B940C9304910D9200F2DE80AB
:10258000224604F00F094FEA1418049B1344802BD1
:1025900005DD0B9BC3F180039BB20493D318049910
:1025A0000C9A0D9C02925E1E48BF03F10E0611F0BC
:1025B000070318BF0123144403EBD103A24205947F
:1025C0004FEA2616089380F2C6803F2A00F3C380A4
:1025D0000C9B644A644C08EBC30302EB4302023ACF
:1025E00008F101014900730000F1040B03920EA8E9
:1025F00012AA8D1E0EAF41181844D3187D190693E8
:1026000094F800C0079502EB480300270991A5F153
:10261000020A0A93069B4FF00002464523F8102C4D
:10262000C0F295801BF8042C1BF8033C43EA0223FC
:102630000A9A22F8103C049A0F2A6DDDDDF824E096
:102640005946144645460BE011F8022C11F8013C9E
:102650000F2C43EA02232EF8023B01F102015DDD5B
:102660000135AE42A4F11004EEDAB9F1000F17D033
:10267000002546450FDB5246002432F8023F03F0A6
:1026800001015B081CB16FEA43436FEA5343824286
:1026900013800C46F1D101354D45EADB46451FDB81
:1026A0008646079D039C4146604607E022EA0303F5
:1026B00001318E42238011DB08290FD034F8022F1C
:1026C00035F8023B1A4218BF0127012822D0002802
:1026D000ECD0013153408E422380EDDA84467046BF
:1026E000029B059A01339A42029307D0089B9B44B0
:1026F000039B10330393029B402B8BD10D9B0093C4
:102700000C9A049B0B991748FFF782FD384613B0CB
:10271000BDE8F08F1343CBE7049C4546ACB10022E3
:10272000114601315208A14242F40042F9D113404E
:1027300012AA02EB450525F8103C96E74FF0000978
:10274000C8464A46CDF82C901FE72346F0E7B9F17A
:10275000000FC5D08CE70027D0E700BFDC98FF1F33
:10276000DE98FF1F5094FF1FC4B8FF1F70B5334B96
:102770001B7884B0002B35D0314BA0F12001002212
:1027800013F831408DF80B2003EBC10104F00F0664
:102790004B1C64B2083101AA1D78002C03F101031F
:1027A000B4BF557015708B4202F10102F4D1002CB8
:1027B000BCBF00238DF804306A282ED05B2834D0AB
:1027C0005D282ED07B2834D07D282ED001A8082269
:1027D0000521FFF7C7FE1B4A138801331E441680EC
:1027E00004B070BD184B03EBC0006FF48073184445
:1027F0000DF10B010DF1030310F8012F03F8012F68
:102800009942F9D10822062101A8FFF7ABFE0D4A33
:1028100013880633138004B070BD80238DF80B300D
:10282000D4E760238DF80B30D0E7C0238DF80B3050
:10283000CCE730238DF80B30C8E700BF9CB8FF1FF2
:1028400030250100DC98FF1FA0040100F0B5244BE7
:102850008BB0D91D222201E013F8012F82423BD018
:102860009942F9D14FF0010E1E4B1F4A03EBC006EF
:1028700010F0800F6FF4807392F800C018BF4FF013
:10288000000E1E446D4608AF16F8014F08230020C5
:102890004FF440418022013B22429BB218BF0843C3
:1028A00052088908002BF6D1BCF1000F04D0BEF10C
:1028B000000F01D040EA5000030AC0B22B70AB7089
:1028C0006870E8700435AF42DED1684610220C21F2
:1028D000FFF748FE0BB0F0BD4FF0000EC4E700BF9D
:1028E000501B0100A0040100BCB8FF1F08B5A0F1F7
:1028F0003003DAB2092A11D80A48102200EB43103B
:102900000C21FFF72FFE084A08491388097803F1C4
:102910000C00108009B10D33138008BDFFF796FF3E
:10292000F1E700BF60D00000DC98FF1FBCB8FF1FBC
:102930002DE9F04184B06B46002203F8012B04A975
:102940008B42FAD1A0F12203DAB21E2A61D8344BAD
:10295000D34003F0010383F0010C002B59D0A0F108
:10296000200303EB830403EB44032E4C2E4EE55C63
:10297000377800221C4405F00F08631C8DF80020F6
:102980008DF801206DB20B346A460CE011702FB146
:10299000BCF1000F02D041EA510111700133A34292
:1029A00002F1010210D0002D1978EFDA9170002F9A
:1029B000F4D041EA5101BCF1000FEFD00133A34242
:1029C000917002F10102EED16A281DD05B2804D07B
:1029D0005D2802D07B38022803D89DF800308DF89E
:1029E0000A300C2208216846FFF7BCFD0F4A3178F7
:1029F000138808EB0307BFB2BB1C138009B1033770
:102A0000178004B0BDE8F0819DF805308DF80130E5
:102A1000E7E7B0F13B0C18BF4FF0010C9FE700BF98
:102A20000714004100960000BCB8FF1FDC98FF1F90
:102A30002DE9F043A0F12203DAB21E2A91B08446B8
:102A40006CD9BCF13B0018BF012001AB002203F898
:102A5000012B10A98B42FAD1ACF1200303EB8308C0
:102A600003EB4803384A12F8039002EB030809F01D
:102A70000F0708F1010E4FFA89F908F10B0801AEB2
:102A80001EF8015B082200244FF4404180232B42B2
:102A900018BF0C43013A4FEA53034FEA9101F6D1B4
:102AA00008B144EA5404B9F1000F4FEA1423E4B228
:102AB0002FDB3370B3707470F470C64506F10406F2
:102AC000DED1BCF16A0F32D0BCF15B0F07D0BCF194
:102AD0005D0F04D0ACF17B0CBCF1020F0BD89DF85C
:102AE00004209DF805308DF82C208DF82E208DF8CF
:102AF0002D308DF82F3001A818221021FFF732FD5C
:102B0000124A1388033303EB4707178011B0BDE85F
:102B1000F0833372B3727472F472CEE70C4BD3400D
:102B200003F0010383F00100002B8ED189E79DF8AB
:102B300018209DF819308DF808208DF80A208DF89E
:102B400009308DF80B30D6E700960000DC98FF1FA7
:102B5000071400410C4B1B78172B02D91F280CD8E7
:102B600070470F2B03D91F28FAD9FFF7BFBE0B2BD5
:102B700005D91F28F4D9FFF7DBBEFFF759BF1F287F
:102B8000EED9FFF7F3BD00BF39B8FF1F2DE9F041C3
:102B9000804608460C4605F093FEA0EB800000F14D
:102BA00040030E4A0E4F20780E4E0F4D0F49A2F8EB
:102BB00000801BB223EAE37300223B801F284FF002
:102BC000080332702A700B7005D9FFF7C3FF14F8A1
:102BD000010F1F28F9D8BDE8F08100BFDE98FF1F64
:102BE000DC98FF1FBCB8FF1F9CB8FF1F39B8FF1F40
:102BF000F8B5074608460C4605F062FE00B2C0F183
:102C000010030D4A0D4D207817809B001BB223EA5C
:102C1000E3730B4E0B490C4A2B80002701250C2334
:102C20001F2837700D70137005D9FFF793FF14F844
:102C3000010F1F28F9D8F8BDDE98FF1FDC98FF1F91
:102C4000BCB8FF1F9CB8FF1F39B8FF1F2DE9F0412A
:102C50002249234E234FDFF8A8800020FFF7C8FF4A
:102C600000250D23012180203B803580FFF770FB7C
:102C70001D491E4AB8F800301D480D70082111701A
:102C80009A07057018D510231A4C35803B805020C8
:102C9000FFF760FF14F8010F1F28F9D800221A234C
:102CA000154C32803B802020FFF754FF14F8010FB1
:102CB0001F28F9D8B8F80030DB070DD500222423EF
:102CC0000E4C32803B804520FFF744FF14F8010F83
:102CD0001F28F9D8BDE8F081BDE8F08188280100FF
:102CE000DC98FF1FDE98FF1FBCB8FF1F39B8FF1F1D
:102CF0009CB8FF1F542801006428010074280100BB
:102D00006898FF1FF8B51349134E144D144C00205A
:102D1000FFF76EFF13491448144A00230B70012774
:102D20000C2133801423077011702B805320FFF780
:102D300011FF14F8010F1F28F9D8002222230C4C90
:102D400032802B807520FFF705FF14F8010F1F2834
:102D5000F9D8F8BDC0280100DC98FF1FDE98FF1FDE
:102D600098280100BCB8FF1F9CB8FF1F39B8FF1F8F
:102D7000AC2801002DE9F843074608460C4605F04B
:102D80009FFDC00086B2BFB2DFF868901649174AAF
:102D90002078DFF86480164B07F1030E35B2C5F1D9
:102DA0008005A9F800E04FF0000E6D1081F800E0FA
:102DB0000121ADB211701F284FF00C02A8F800508D
:102DC0001A7005D9FFF7C6FE14F8010F1F28F9D8AD
:102DD000B01D043DA8F80050A9F8007000B2102101
:102DE000BDE8F843FFF77EBBBCB8FF1F9CB8FF1FD0
:102DF00039B8FF1FDE98FF1FDC98FF1F2DE9F04F49
:102E0000404B83B05C7A002846D13F4D2B689C42F2
:102E100002D103B0BDE8F08FDFF814A1DFF8149100
:102E2000DFF81481394F3A4E3A4B019318224FF094
:102E3000000E4FF0200B0C21602083F800E03A8058
:102E40000092A6F800B0FFF783FA019B009A3A803F
:102E500001210C20A6F800B019708AF8001089F83A
:102E6000001088F800005CB92B4E5846FFF772FE40
:102E700016F8010F1F28F9D82C6003B0BDE8F08FB9
:102E8000012C32D1254E5846FFF764FE16F8010F8B
:102E90001F28F9D82C60F0E72149DFF894A0DFF86B
:102EA0009490DFF89480194F194E1E4D0020FFF7C3
:102EB0009FFE002308218AF8003089F800301C2288
:102EC000122388F800103A8033804320FFF742FE37
:102ED00015F8010F1F28F9D813490B4D3020FFF7C3
:102EE00049FF40F2E7332B609EE7022CC4D10F4E1E
:102EF0004120FFF72FFE16F8010F1F28F9D82C608C
:102F0000BBE700BF1894FF1F28B8FF1FDC98FF1F06
:102F1000DE98FF1FC4B8FF1FDC280100E82801006D
:102F200000290100CC28010008290100F428010033
:102F3000BCB8FF1F9CB8FF1F39B8FF1F2DE9F84F21
:102F4000002867D1DFF86C9199F80030DFF84C81E8
:102F500098F800209A425BD0494C4A484A4A4B4E66
:102F60004B4F4C4D0C234FF0010A194684F800A03A
:102F70004FF0280B80F800A020241370322000238B
:102F8000A6F800B03C802B70FFF7E2F9082085F826
:102F900000A0A6F800B03C8002F0F4FF58B33E4C0D
:102FA0004D20FFF7D7FD14F8010F1F28F9D8102482
:102FB00098F8003089F80030214600234FF030089F
:102FC000602034802B70A7F80080FFF7C1F901233F
:102FD00008203480A7F800802B70304C02F0D2FF1C
:102FE000002846D123784046002B3DD12C49BDE82E
:102FF000F84FFFF7BFBE98F800305BB3DFF8B8A01A
:103000002046FFF7A7FD1AF8010F1F28F9D8CEE7D1
:10301000BDE8F88F23491B4E1B4D234C0020FFF7C2
:10302000E7FD174B19481A4A002119700127082398
:103030001221038037702B7011805420FFF78AFD16
:1030400014F8010F1F28F9D8DFF86890FF2389F8DA
:1030500000307BE7DFF864A02046FFF77BFD1AF81D
:10306000010F1F28F9D8A2E71049BDE8F84FFFF774
:1030700081BE0F493220BDE8F84FFFF787BD00BF82
:10308000BCB8FF1F9CB8FF1F39B8FF1FDC98FF1F9B
:10309000DE98FF1FC4B8FF1F282901006CB8FF1F6E
:1030A0006829010040290100102901005C29010064
:1030B0004829010096B8FF1F302901003829010076
:1030C0002DE9F04F83B0002840F0CD80DFF82CB21E
:1030D0009BF80030DFF8288298F80B209A4200F025
:1030E000B680734ADFF81C92DFF81CA2009200241D
:1030F0001023202180201470A9F80040AAF8003085
:103100006C4F6D4E6D4DFFF723F9009AA9F8004002
:103110000123137014213C700822694C3370AAF803
:1031200000102A705320FFF715FD14F8010F1F2817
:10313000F9D8644B1B78002B40F08C80624A3B70BE
:103140001278337008232B70002A00F0A7805F4CA0
:103150004C20FFF7FFFC14F8010F1F28F9D85C4B37
:103160005C481A885C4B0093A0FB02129209A3FBF7
:103170000210C00800EB8000A2EB40004FF00C0EE4
:1031800085F800E030304FF05A0E00224FF0010376
:10319000C0B2A9F800E04FF0140E3A7001923370FB
:1031A000AAF800E0FFF7D6FC2E20FFF7D3FC484B2F
:1031B0004A4918884A4CA1FB0030009B4009A3FBF8
:1031C000002E4FEADE0E0EEB8E0EA0EB4E003030DE
:1031D000C0B2FFF7BFFC3E4B1888009BA3FB00204A
:1031E000C008A3FB0023DB0803EB8303A0EB43032E
:1031F00003F13000C0B2FFF7ADFC5620FFF7AAFC88
:103200004FF00102082120233270019A3A70A9F888
:1032100000202970AAF800305420FFF79BFC14F816
:10322000010F1F28F9D898F80B20002308213B70C4
:10323000337029702AB32B4C4E20FFF78BFC14F807
:10324000010F1F28F9D898F80B308BF8003003B025
:10325000BDE8F08F244C4E20FFF77CFC14F8010FE2
:103260001F28F9D87BE72149DFF890B00020FFF74D
:10327000BFFC1F493020FFF77DFDFF238BF8003096
:1032800028E71C4C4120FFF765FC14F8010F1F28AC
:10329000F9D898F80B308BF80030D8E7164C472057
:1032A000FFF758FC14F8010F1F28F9D857E700BFA3
:1032B000C4B8FF1FBCB8FF1F9CB8FF1F39B8FF1F61
:1032C000702901008498FF1FB498FF1F7C2901001A
:1032D000D8B8FF1FD34D6210CDCCCCCC1F85EB519D
:1032E00090290100A42901008C290100AC290100CA
:1032F000B42901009829010084290100A498FF1F26
:103300001894FF1FDC98FF1FDE98FF1FF8B51649C1
:10331000164E174D174C0020FFF76AFC1649174848
:10332000174A00230B7001270821338014230770EC
:1033300011702B805020FFF70DFC14F8010F1F288F
:10334000F9D8002220230F4C32802B807420FFF705
:1033500001FC14F8010F1F28F9D80B493020BDE8F3
:10336000F840FFF707BD00BFF0290100DC98FF1F00
:10337000DE98FF1FC0290100BCB8FF1F9CB8FF1FCB
:1033800039B8FF1FD8290100FC2901002DE9F04FB1
:1033900083B0002845D13A4F3B683A4EF2899A42B1
:1033A0003CD0DFF8F8B0DFF80881DFF8F490364C55
:1033B00000254FF0100A0A218020ABF8005088F851
:1033C0000050A9F800A0FEF7C3FF30483049314B48
:1033D00005704FF0010E0822ABF80050A9F800A0CC
:1033E00088F800E00D701A704C20FFF7B3FB14F85A
:1033F000010F1F28F9D869460A22F08905F040FA22
:103400009DF800001F2888BF6C4605D9FFF7A2FB76
:1034100014F8010F1F28F9D8F3893B6003B0BDE809
:10342000F08F1D491D4E1E4D1E4C0020FFF7E0FB86
:1034300016491748174A00230B70012708213380CB
:103440001C23077011702B805020FFF783FB14F8AA
:10345000010F1F28F9D800222623134C32802B801D
:103460006220FFF777FB14F8010F1F28F9D80F49E6
:10347000034F3020FFF77EFC42F20F733B608CE776
:1034800078B8FF1F1894FF1F382A0100BCB8FF1F2F
:103490009CB8FF1F39B8FF1F482A0100DC98FF1FA6
:1034A000DE98FF1F082A0100202A0100582A010087
:1034B000C4B8FF1F00F00F00092802D93730FFF70A
:1034C00049BB3030FFF746BBF0B50C2985B04DD86D
:1034D000002914BF0D4601250028274FBABF4042DE
:1034E0000124002401AA04AE87FB0031C317C3EBFB
:1034F000A10303EB8301A0EB4100303002F8010B84
:1035000096421846F0D13246012700200B234FF097
:10351000200E04E0581C002713F1FF330BD312F8E0
:10352000011D2BB330291CD00028F3D013F1FF3339
:103530004FF00007F3D224B104AB18442D2300F858
:103540000C3C0B2416F8013DA542184604F1FF344B
:1035500001DC202B01D0FFF7FDFA631CF2D105B08E
:10356000F0BD002FD8D082F800E0D5E70C25B3E7F6
:103570000028E0D1CEE700BF676666662DE9F04F10
:1035800083B0002840F08280DFF89081D8F80030C6
:10359000554FDFF88CB1B7F90020DFF868A19A42E7
:1035A0006DD0524E524D534C302212234FF0000931
:1035B00014212020328001922B80009384F8009007
:1035C000FEF7C6FE009BDFF84CE12B80B7F9003018
:1035D000019A4948494932808EF8009001224FF003
:1035E000180E4B452270027081F800E03FDD2B2061
:1035F000FFF7B0FA3C4BB3F90030414880FB0320A1
:10360000DB17C3EB600000B20121FFF75DFF4FF055
:103610001009B7F90030C8F80030494600234FF0D0
:10362000300860202370A6F80090A5F80080FEF70F
:103630008FFEBAF80030A6F800900122B3F5007FA3
:103640002270A5F800802F4C42D0B3F5807F09D1BD
:10365000B7F90020002A05DB2B493020FFF78AFB51
:10366000BAF80030CBF8003003B0BDE8F08FC4D119
:103670002020FFF76FFA1C4BB3F90030BDE7DBF8F1
:103680000030BAF800209A428BD1EBE71F491B4D5E
:103690001F4C0020FFF7ACFA1E48174A1349144B81
:1036A0000026012706701770542008261C22088067
:1036B0002E701A806F20FFF74DFA14F8010F1F28A3
:1036C000F9D8DFF8588040F2E733C8F800305FE7F8
:1036D000054AB2F90020002AC4DC40460E49FFF733
:1036E00049FB2388B1E700BF6EB8FF1FDC98FF1FBE
:1036F000DE98FF1FC4B8FF1F9CB8FF1F39B8FF1F1B
:10370000ABAAAA2A0894FF1F7C2A0100642A0100A0
:103710005C2A0100BCB8FF1F742A01006498FF1FD7
:103720003CB8FF1F2DE9F04F83B0002877D1DFF8B8
:10373000B881D8F800305E4FDFF8B0A1B7F90020AB
:10374000DFF884B19A4263D05A4D5B4C5B4E302215
:1037500012234FF0000914211E202A800192238099
:10376000009386F80090FEF7F3FDDFF86CE1019A14
:10377000B7F90000009B52492A80524A23808EF8F4
:10378000009001234FF0180E484533700B7082F8FB
:1037900000E005DD2B20FFF7DDF9454BB3F9000014
:1037A00000286AD00121FFF78FFE4FF01009B7F90A
:1037B0000030C8F8003030270023494660202780B9
:1037C0003370A5F80090FEF7C3FDBBF800302780EA
:1037D0000122C02BA5F8009032703B4C53D0802BB7
:1037E0000BD0402B04D1324AB2F900200B3255DA0B
:1037F000AAF8003003B0BDE8F08F2D4AB2F90020DE
:103800000B2AF5DC38463149FFF7B4FA2388EFE795
:10381000BAF80030BBF800209A4295D1E8E72C496D
:10382000244D254C2B4E0020FFF7E2F92A4A244B69
:1038300024490020012710701F70082054221423EF
:1038400008702A8023807320FFF784F916F8010F8F
:103850001F28F9D81E2354222380204C2A8074204C
:10386000FFF778F914F8010F1F28F9D8DFF87880EE
:1038700040F2E733C8F800305DE72020FFF76AF92F
:10388000B7F900008EE70A4AB2F90020002AAFD04B
:1038900038461349FFF76EFA2388A9E738461149DD
:1038A000FFF768FA2388AAF8003003B0BDE8F08F6C
:1038B0009898FF1FDC98FF1FDE98FF1FC4B8FF1FFA
:1038C0009CB8FF1F39B8FF1F0894FF1F742A01001E
:1038D000982A0100882A0100BCB8FF1F902A010025
:1038E000A42A01007C2A010034B8FF1F4494FF1F62
:1038F0002DE9F04F604A614B157B02EB450285B024
:10390000518A00240A2201E033F83A2C914203F153
:103910003A0303D00134142CF6D1002400285BD1E3
:10392000DFF88C91DFF874B1D9F800309D42544B28
:10393000019304D11A88BBF80030934247D0514F0D
:10394000DFF85481504E3A2212234FF0000A14211E
:1039500010203A800392A8F80030029386F800A065
:10396000FEF7F6FC039A3A80484A029B82F800A0D0
:10397000474AA8F8003001211170464A31701823D7
:103980001370002D37D13820FFF7E4F830234FF0C3
:10399000000A1021802086F800A0A8F800300293C9
:1039A000C9F80050A7F800A0FEF7D2FCBBF8002031
:1039B000029BA8F800300121182A3170A7F800A056
:1039C000354B364E1BD0102A3CD0082A42D0019BE2
:1039D0001A8005B0BDE8F08F294B3149DFF8D0904F
:1039E00001930020FFF704F940F2E733DFF8ACB0B1
:1039F000C9F80030A3E72846FFF766FDC6E7029244
:103A00002848224A3A2582F800A005FB0404204AEF
:103A100032271F80A51C1F4B117028460C211970DE
:103A200004F04EFF0F2820D9A078029A1F28CED983
:103A3000FFF790F815F8010F1F28F9D8BBF8002000
:103A4000102AC2D118493020FFF794F9BBF80020A2
:103A5000082ABCD115493020FFF78CF9BBF80020AB
:103A6000019B1A8005B0BDE8F08F29463846FFF764
:103A7000BFF83288A7E700BF1894FF1FBAC1000043
:103A800070B8FF1FDC98FF1FC4B8FF1FBCB8FF1F32
:103A90009CB8FF1F39B8FF1FDE98FF1F0894FF1F57
:103AA000B02A010080C10000742A01007C2A0100B4
:103AB0004CB8FF1F2DE9F04F404B85B09F7A00288E
:103AC0004DD1DFF81881D8F800309F4202D105B0FF
:103AD000BDE8F08F3A4B0193DFF80491394BDFF8E2
:103AE00004B1DFF804A10293374A03924FF00003B8
:103AF000202413700C214FF030032820ABF8003045
:103B0000AAF80040FEF724FC4FF03002ABF800208A
:103B1000039AAAF8004001261670019A89F80060FD
:103B20001670029A294D0C23384602211370039314
:103B3000FFF7CAFC019A4FF000031670029A89F849
:103B40000030039B13702046FFF704F815F8010FAF
:103B50001F28F9D8C8F8007005B0BDE8F08F184BE1
:103B600001931D46174B1A49DFF874900293002009
:103B70001E46DFF870B0DFF870A0164CFFF738F87B
:103B80000023082189F800302B701622122331708F
:103B9000ABF80020AAF800305220FEF7DBFF14F843
:103BA000010F1F28F9D80C49DFF830803020FFF7CB
:103BB000E1F840F2E733C8F8003095E71894FF1FAA
:103BC0009CB8FF1F39B8FF1FC4B8FF1FC82A0100E7
:103BD000CC2A0100B82A0100D42A0100A8B8FF1F8E
:103BE000BCB8FF1FDC98FF1FDE98FF1F2DE9F84FC0
:103BF0004A494B4EDFF840814A4D4B4C4B4FDFF862
:103C00003C910020FEF7F4FF002301213370A8F857
:103C1000003008221023297022703B804420FEF7D8
:103C200099FF19F8010F1F28F9D8414BDFF81091BF
:103C300018684FF0000A4FF0080B052186F800A025
:103C400085F800A084F800B0FFF73EFC01221A239B
:103C500086F800A084F800B0A8F800A02A703B8085
:103C60004620FEF777FF19F8010F1F28F9D8012128
:103C70004FF0000908464FF0080A86F8009085F8D2
:103C8000009084F800A0FFF71FFC2E20FEF762FFD3
:103C900001210320FFF718FC2E20FEF75BFF4846AA
:103CA0000121FFF711FC0122242386F80090A8F8D7
:103CB0000090DFF8909084F800A02A703B804420A8
:103CC000FEF748FF19F8010F1F28F9D80023082133
:103CD000142233702B70DFF8709021702E23A8F817
:103CE00000203B804D20FEF735FF19F8010F1F28FB
:103CF000F9D81A23A8F8003008233820002101221F
:103D000023700C4C388031702A707720FEF722FF28
:103D100014F8010F1F28F9D8BDE8F88F3C2B0100DB
:103D2000BCB8FF1F9CB8FF1F39B8FF1FDE98FF1FEC
:103D300084B8FF1F2C2B0100DC98FF1FDC2A010038
:103D4000EC2A0100002B01001C2B0100F8B5BB4B35
:103D50001B68042B51D8BA4B1C88002C3FD0B4F5FB
:103D6000007F41D024F40073B3F5807F3CD0802CD9
:103D70004CD024F08003402B48D0102C60D024F08D
:103D80001003082B5CD0202C00F09280012C00F056
:103D90009180042C00F0A680022C00F0BB80212C26
:103DA00000F0CF80062C00F0E580242C00F0F98094
:103DB000302C00F00D810024A24D2B789C4200F0A5
:103DC0002281FEF7FFF9A04EA04B0D220027012112
:103DD000802037801A80FEF7BBFA2C70F8BD994D11
:103DE0002B78012B1BD1F8BD964C2378022B3FD1A9
:103DF0000020BDE8F840FFF7C1BBFEF7E3F9AE20B5
:103E0000FDF73EFE924B00221A70A4E78D4C2378FA
:103E1000032B3DD10020BDE8F840FFF783BCFEF73F
:103E2000D1F9894A894B148001210D2280201A8002
:103E3000FEF78EFA01232B70BDE8F840FEF762BF53
:103E4000804C2378042B00F0DC80FEF7BBF97E4D1C
:103E50007E4B0D228020002601211A802E80FEF745
:103E600077FA042323700120BDE8F840FFF740BD36
:103E7000FEF7A8F9744D754B0D2280200026012114
:103E80001A802E80FEF764FA022323700120B0E727
:103E9000FEF798F96C4D6D4B0D2280200026012114
:103EA0001A802E80FEF754FA032323700120B2E714
:103EB000072481E7634C2378052B00F0B580FEF7DB
:103EC00081F9614D614B0D228020002601211A806D
:103ED0002E80FEF73DFA052323700120BDE8F8404F
:103EE000FEF78CBF574C2378062B00F09F80FEF71F
:103EF00069F9554D554B0D228020002601211A806D
:103F00002E80FEF725FA062323700120BDE8F84035
:103F1000FFF7D0BD4B4C2378082B70D0FEF752F939
:103F2000494D4A4B0D228020002601211A802E8007
:103F3000FEF70EFA082323700120BDE8F840FEF7D3
:103F4000FDBF404C23780A2B72D0FEF73BF93E4D63
:103F50003E4B0D220026012180201A802E80FEF784
:103F6000F7F93C4B1B780A22227083BBBDE8F8406E
:103F7000FFF7CCB9334C2378092B5BD0FEF722F93D
:103F8000314D324B0D228020002601211A802E80D7
:103F9000FEF7DEF9092323700120BDE8F840FFF7A2
:103FA0008FB8284E33780B2B43D0FEF70BF9264CF5
:103FB000264B00250D220121802025801A80FEF746
:103FC000C7F90B233370BDE8F840FFF70FBEF8BD0B
:103FD0001C4C23780C2B2FD0FEF7F4F81A4D1B4BFA
:103FE0000D228020002601211A802E80FEF7B0F9D4
:103FF0000C2323700120BDE8F840FFF7C7B900206B
:104000009BE7002030E7023C042C3FF6ECAE01A316
:1040100053F824F0F13D0000153E0000034000007D
:10402000294000002D400000002057E700206DE7E8
:10403000F8BDF8BD0020B0E70020DCE7B898FF1F0E
:104040000894FF1F65B9FF1FDC98FF1FDE98FF1F54
:10405000F6B8FF1F8498FF1F2DE9F04FC64F97F861
:10406000008083B0B8F1000F00F01181DFF82CA3BD
:10407000BAF90030002B40F0A980C04C2278002A09
:1040800040F0CA80BE4EBF4DBF4FDFF85083BF4CDB
:104090004FF000090C214FF0580B2820A6F800B073
:1040A00087F80090A5F80090FEF752F9B8F80000E4
:1040B000A6F800B0000A4FF0010BA5F8009087F8B1
:1040C00000B0FFF7F7F998F800804FEA1810FFF7F3
:1040D000F1F908F00F00FFF7EDF94FF050080D224D
:1040E0000C2130202A80019287F80090A6F80080E9
:1040F000FEF72EF9A64B019A18882A80594687F8B0
:1041000000B0A6F80080FFF7DFF94FF01A030C218A
:1041100030202B80A6F8008087F80090FEF718F971
:104120009B4B87F800B0588AA6F800804FF01A031E
:1041300059462B80FFF7C8F94FF027030C21302098
:104140002B8087F80090A6F80080FEF701F9914ACD
:1041500087F800B01088A6F800804FF027030221EE
:104160002B80FFF7B1F96D20FEF7F4FC14F8010F76
:104170001F28F9D8884A13782BB3BAF9003087483A
:104180000021022B117000F0DC8001331BB2042BE4
:1041900040F3DD800180824E794DFEF713F8002751
:1041A0008049814A774B377001240C270C701770B7
:1041B000BAF900003422214678261A802E80FFF7B3
:1041C00083F96E4B1C7003B0BDE8F08F012B00F03B
:1041D0000B81022B00F09981032B40F05A82674C2F
:1041E0002378002BC6D06649664A704D00230B80A9
:1041F00013805320FEF7AEFC15F8010F1F28F9D8E5
:104200005A20FCF7FDFE6A4B0025402145201D7019
:10421000FDF708FB2570ADE761486249624A584ED8
:10422000584D037001200870624F33800C211170CB
:104230002B805020FEF78EFC17F8010F1F28F9D8AD
:1042400000220D235C4F32802B804C20FEF782FC35
:1042500017F8010F1F28F9D800221A23574F328070
:104260002B804F20FEF776FC17F8010F1F28F9D896
:1042700000222723524F32802B805320FEF76AFC06
:1042800017F8010F1F28F9D800232370FCE6AF2090
:10429000FDF7F6FBFDF796FF4149424A384E394D8E
:1042A000414B81F8008001211170464CA6F8008036
:1042B0000C221A70A5F800804420FEF74BFC14F87D
:1042C000010F1F28F9D8DFF81C81B8F80030002151
:1042D000102231802A80002B3BD13B4C2A20FEF754
:1042E00039FC14F8010F1F28F9D800222023374C7D
:1042F00032802B805620FEF72DFC14F8010F1F286A
:10430000F9D8042001F03EFE002840F06581304CD1
:104310004C20FEF71FFC14F8010F1F28F9D82D4977
:10432000DFF878A03020FEF725FD2B49134A012342
:104330004FF6FF740020AAF80040087013703B701D
:1043400018E7264B1B881C2B00F091810323038068
:1043500021E7234C4520FEF7FDFB14F8010F1F2831
:10436000F9D898F800402009FFF7A4F804F00F00EE
:10437000FFF7A0F8B9E700BF5898FF1F2EB8FF1F3E
:10438000DC98FF1FDE98FF1FC4B8FF1FC82B010079
:1043900054B8FF1FA0B8FF1F38B8FF1F9EB8FF1FFB
:1043A000BCB8FF1F9CB8FF1F39B8FF1F5C2C010071
:1043B0006DB8FF1F982B0100A42B0100B02B01004A
:1043C000BC2B01004C2B01006C2B01007C2B01004D
:1043D000902B01007C2C0100C498FF1F0894FF1F44
:1043E0005C2B01006898FF1FBA4CBB4F2278002A53
:1043F00040F0FB80DFF80083DFF80093B74EB84D44
:10440000DFF828B30823002489F8003019464FF05C
:104410005C09242001933C7088F800408BF8004030
:104420002C80A6F80090FDF793FFAE4AA6F8009006
:10443000012710882C8005218BF80070FFF744F8C5
:10444000019BA6F8009019464FF00C082420A5F80F
:1044500000808BF80040FDF77BFFA34AA5F80080A1
:1044600010888BF800700521A6F80090FFF72CF853
:10447000019BA6F80090194624204FF018032B80CA
:104480008BF80040FDF764FF984A8BF80070D089E4
:10449000A6F800904FF0180305212B80FFF714F8C1
:1044A000019BA6F800904FF02408194640468BF86F
:1044B0000040A5F80080FDF74BFF8D4B8BF8007096
:1044C0001A88A6F80090A2F6B832A242A5F8008099
:1044D000C0F2DD804FF47A53864803FB02F280FB82
:1044E0000213D217C2EBA31303FB03F380FB0320D9
:1044F000DB17C3EBA02080B2B0F57A5F28BF4FF482
:104500007A500521FEF7E0FF34E6724C2378002B49
:1045100032D07148714E724D7749784A784F0023F6
:10452000037033802B8001230B700C2313705220F7
:10453000FEF710FB17F8010F1F28F9D800221023EF
:10454000704F32802B807320FEF704FB17F8010FA9
:104550001F28F9D8202300222B806B4D3280282081
:10456000FEF7F8FA15F8010F1F28F9D8674930202F
:10457000FEF700FC00232370654F3B78002B3FF4CF
:10458000F9ADFDF71FFE554E53495B485B4A544D4C
:10459000002301240B70047033800C2108235D4C30
:1045A00011702B805020FEF7D5FA14F8010F1F2848
:1045B000F9D800221823584C32802B807220FEF745
:1045C000C9FA14F8010F1F28F9D854493020FEF712
:1045D000D1FB00233B70CDE5514C4820FEF7BAFAE1
:1045E00014F8010F1F28F9D899E6DFF80C813B4E2B
:1045F0003B4DDFF8089188F8003008220023DFF8EF
:1046000034B13B7033802B8089F800205020FEF7B6
:10461000A1FA1BF8010F1F28F9D800220C23DFF89C
:1046200018B132802B805120FEF794FA1BF8010F4D
:104630001F28F9D800221823DFF800B132802B8020
:104640004D20FEF787FA1BF8010F1F28F9D800222A
:104650002423DFF8ECB032802B804D20FEF77AFA6D
:104660001BF8010F1F28F9D800232370C8E62D4B33
:104670002D4A03F1100012F8011F23F8021F98427F
:10468000F9D1FCF7DFFA224B01221A709BE5204694
:1046900037E7042B7FF46EAD0E4C2378002B51D1FD
:1046A0000E4E0F4D214F00244FF050080C213020AA
:1046B0003C702C80A6F80080FDF74AFE1C4AA6F844
:1046C0000080012310682C8004213B70FEF7FCFE63
:1046D00050E500BF2EB8FF1FBCB8FF1FDC98FF1FBE
:1046E000DE98FF1FB4B8FF1F7898FF1F1894FF1FB4
:1046F000E2B8FF1FD34D62109CB8FF1F39B8FF1FEF
:10470000142C0100242C0100342C0100782C010011
:10471000C498FF1F442C01004C2C01007C2C01008C
:10472000882B01002894FF1F1F89FF1FC4B8FF1F9B
:10473000B898FF1FCC2B0100DC2B0100F02B0100EF
:10474000002C0100144F154A97F80C80144B154E9D
:10475000154D08F0070807EB480001214FF000094C
:10476000408A117083F80090FCF74AFC87F80C80AF
:10477000FCF768FA0D4B7A7A0D4F1A70A6F8009084
:10478000A5F800905520FEF7E5F917F8010F1F284E
:10479000F9D80023237085E71894FF1F8E98FF1F18
:1047A0007098FF1FDC98FF1FDE98FF1F6DB8FF1F7A
:1047B0006C2C010010B5544C84B001F0F7FB236859
:1047C000C01A312869D8514C01F0F0FB2368C01A97
:1047D000B0F57A7F5BD24E4C4E4A23680093009B23
:1047E00011685B1A042B3BD823684B4A0293029B47
:1047F000116847485B1A312B23D9484B0168039154
:104800001B880399116013B1454B00221A60454C77
:104810002378002B66D0444A13780133DBB2032B94
:1048200051D81370414C00210D2001F0A5FB2378D5
:10483000002B5AD13E4A13780133DBB2272B36D8EE
:1048400013703C4B1B78002B2DD13B4B1A6841F267
:1048500088339A4202D9394B01221A7004B010BD34
:1048600023680193019B1360FCF776F9142000F094
:1048700013FE334B1880152000F00EFE294B314AF1
:104880001B781080002BAFD1FDF716F9ACE701F0D3
:104890008DFB2060FDF7A0F89DE7FCF739F801F0EB
:1048A00085FB20608FE7002002F026FACDE7264B3B
:1048B0001B78002111700BB92378DBB9184A1368F3
:1048C00002331360BDE700231370FCF7CBF9FCF74C
:1048D00009F82378A3B91D4B1B78002BA2D1FFF751
:1048E00035FA9FE7FDF7A2FA95E70021032001F0D2
:1048F000B3F99FE74FF48051032001F0ADF9DDE7F4
:10490000FFF7AAFB8EE700BF1494FF1F7498FF1FE8
:1049100088B9FF1F98B8FF1FB8B8FF1F0894FF1F82
:10492000B898FF1FA4B8FF1FE8B8FF1FB498FF1F77
:1049300097B8FF1F40B8FF1FCC98FF1F4CB9FF1F4F
:10494000B4B8FF1FE2B8FF1F8498FF1F7E98FF1FB7
:104950002DE9F047244ADFF8AC80DFF8AC90234F14
:10496000234E244D244C012313700C2188F8003071
:1049700089F8003020220023397032802B804220B9
:10498000FEF7E8F814F8010F1F28F9D84FF00C0AC9
:1049900055211E221948A6F800A00124A5F800A060
:1049A000FDF7E0FD66221623332088F8004089F8E1
:1049B000004032802B8087F800A0FEF7CBF8002063
:1049C00008212022302389F800400D4C88F800008F
:1049D000397032802B804920FEF7BCF814F8010FA3
:1049E0001F28F9D8BDE8F087C4B8FF1F39B8FF1FEA
:1049F000DC98FF1FDE98FF1F842C01003089FF1F09
:104A00008C2C0100BCB8FF1F9CB8FF1F70B50C2098
:104A100000F00EFD0C2001F01DFA554800F01EF9C3
:104A20005449534800F066F95349032001F022FA33
:104A300001210D2001F0B4FA0021042001F0B0FAA8
:104A40000021052001F0ACFA0121062001F0A8FAAE
:104A50000021082001F0A4FA01210C2001F0A0FAA5
:104A600001210D2001F088FA0320002101F0F4F863
:104A7000052001F087FA10B9404B01221A70FCF7AB
:104A8000F1F8642001F0B6FA3D4B1B78002B63D09F
:104A90003C4C3D4E4FF0FF332360A362FCF7C2F85D
:104AA000A26A3A4B9A425DD0338843F001033380C7
:104AB000FCF774F9FBF7ACFE18B9338843F0020336
:104AC00033800123002223716371A271FCF790F9F6
:104AD000A37A642B06D82E492E4ADB01A1FB0313CF
:104AE0005B091380257B2C4B627A1A7005F0070551
:104AF00004EB4503588AFCF783FA2573FCF7A2F808
:104B0000FDF7CEFA642001F075FAFDF75BFBFFF7C5
:104B10001FFF4FF47A7001F06DFA33882BB1FEF766
:104B200095F84FF4FA6001F065FA4FF47A7001F0ED
:104B300061FAFDF747FBAE20FCF7A2FF174C184BBC
:104B40000D220025012106201A70257001F014FAAB
:104B5000144B01221A7070BD4FF48051032001F0F4
:104B60007BF895E7104B22689A42A3D09CE700BFE0
:104B7000388BFF1F801A06003D540945A4B8FF1F5B
:104B80008498FF1F1894FF1F6898FF1FDEC0DBE0AA
:104B90001F85EB518C98FF1F6DB8FF1FF6B8FF1FE4
:104BA00065B9FF1F6CB8FF1FCEFAEDFE00207047FD
:104BB00090F8612090F86000101A704790F860300B
:104BC00090F861209A4205D95A1C034480F860206D
:104BD000187E70474FF0FF30704700BF90F860308C
:104BE00090F861209A4286BF1B18187E4FF0FF3064
:104BF000704700BF704700BF38B50546B0F8AE003B
:104C000090B195F8AD301446C3F1490294420CD8E6
:104C100005F163001844224600F06AFD95F8AD30B6
:104C2000234485F8AD30204638BD01201446287154
:104C3000EEE700BFB0F8AE306BB190F8AD30482B66
:104C400007D8C218013380F8AD30012082F8631014
:104C50007047012303710020704700BF00234269A1
:104C600080F8603080F8613080F8AC3080F8AD308A
:104C700080F8AE3080F8AF3006CA30B40D680469F1
:104C8000C0F8B4302A43C0F8B8300A60A370426953
:104C900090F8B1301649146813441D7A5B7B01EB20
:104CA000C5051B026D6803F4E06343F064032B60E9
:104CB00090F8B23013449D7CDB7D01EBC5011B02F3
:104CC000496803F4E06343F064030B6021685368B0
:104CD000194205D0036928225A70036903229A7188
:104CE000036920225A71036980229A7030BC704790
:104CF0005070010043690CCB12681A420CD0094B6A
:104D000099420AD9084B9942036994BF19220A2291
:104D10005A70036903229A717047036928225A70F6
:104D2000F7E700BF7F1A06003F420F0010B5026987
:104D3000D378DBB2D90604463ED510215806D1708F
:104D400039D503F0040303F0FF02002B52D03E4993
:104D5000D4F8B42000230B7084F8AD30002A5BD067
:104D6000904794F8AD30002B56D02369D0229A702A
:104D7000236994F863201A712369012284F8AC2016
:104D80000222DA7010BD314B84F8B0009C424AD048
:104D90002F4B9C4252D094F8611013794729DBB213
:104DA00007D82948007820B16018013184F86110D3
:104DB00003760223D37010BD5906C2D4917801F056
:104DC000100101F0FF000029DDD013F001031ED116
:104DD00094F8AC1094F8AD00884281BF4B1C0919BF
:104DE00084F8AC3091F8633013712369D0229A7043
:104DF0002269DEE7236984F86120C0229A70236962
:104E0000114A1979012111700222DA7010BDC023F4
:104E1000937022691379CCE70122002384F8AD2036
:104E200084F86330A1E7626994F8B130094913440A
:104E30000322187A00F0C0FD2269ACE7626994F899
:104E4000B1300549F3E700BF80B9FF1F7C8AFF1F1F
:104E5000388BFF1FBD4E0000C94E00000369DB7890
:104E600003F0200373B190F8B0300133DBB2012BB3
:104E700080F8B0301BD9426990F8B1301344187AE9
:104E800000F016BE70B5426903F0FF0590F8B1302E
:104E900013440446187A00F00BFED4F8B8305BB126
:104EA00084F8605094F86100BDE87040184790F8AD
:104EB000AF30002BDFD0704770BD00BF0148FFF757
:104EC000CDBF00BF7C8AFF1F0148FFF7C7BF00BFEF
:104ED000388BFF1F2DE9F047364FDFF8DC903B6839
:104EE000026982B006460093DDF800800021782533
:104EF000D3789B065AD53B680193019BC8EB03030B
:104F00000F2BF5D949B1102BF2D0002090703369E6
:104F100080229A7002B0BDE8F087726996F8B130CD
:104F200013440521187A01F03BF8726996F8B13004
:104F30001344012193F812A0504601F031F80924DE
:104F40000021504601F018F82B46013BFDD101210C
:104F5000504601F011F82B46013BFDD1013CEFD149
:104F6000706996F8B1100144F0220C7A4B7B09EB82
:104F7000C4011B02496803F4E06343F064030B605F
:104F800096F8B2300344997CDB7D09EBC1011B022A
:104F9000496803F4E06343F064030B60013AFDD118
:104FA0003269D3789B064FF00101A4D4012002B0EE
:104FB000BDE8F08788B9FF1F50700100F0B50369A4
:104FC0001222DA700269937803F0200385B0044658
:104FD0000D46002B5ED0B42393703C4922690B68C8
:104FE0000093009E05E00B680193019B9B1B042B23
:104FF00042D8D37803F0200303F0FF00002BF2D057
:1050000094F8AD30002B31D04FF0000E4FF0020C71
:1050100004EB0E0393F8633013710B680393039F43
:10502000206907E09B060DD50B680293029BDB1BF2
:10503000052B28D8C378DBB203F0020202F0FF068A
:10504000002AEFD080F803C02669F378DBB2DF06D0
:1050500032462DD49F062BD5DB0731D40EF1010E3D
:1050600094F8AD305FFA8EFE7345D1D800201DBB99
:10507000002384F8AE3004E09070236980229A7097
:10508000042005B0F0BD86702369802204209A7048
:1050900005B0F0BD03F0FF06FFF71CFF10B90420B8
:1050A00005B0F0BD236984F8AF60B0229A7094E730
:1050B0008023B3700420DAE726698023B370D7E732
:1050C000BEF1000F0CBF02200320F6E788B9FF1FD6
:1050D0000148FFF72BBE00BF7C8AFF1F0148FFF786
:1050E00025BE00BF388BFF1F704700BF0368F0B4B8
:1050F000FBB1002501249D60DC601B4C1A601C4440
:10510000241104F144056A11032692009E60174F92
:105110000679174B47F8241002F1604202F561420C
:1051200005F01F05012000FA05F5E6541560F0BCF6
:105130007047104C236843F40003236000BF0E4BFC
:105140000E4DA4F58734A4F59E7401261E602346F7
:1051500004609C68002CD0D01033AB420360F8D1BF
:10516000002303601846E2E7008FFCBFF48BFF1FAB
:1051700044E400E03C800440007003404071034080
:105180000168A9B10B4BF0B40B441B110A4E0B4F35
:105190000B4D46F8237003F1440202F01F04012373
:1051A0005211A340002445F822308C600460F0BC0A
:1051B000704700BF008FFCBFF48BFF1FE950000059
:1051C00080E100E0024A034B012111601B6818478F
:1051D0000C710340F48BFF1F024A034B0121116045
:1051E0005B6818471C710340F48BFF1F024A034B96
:1051F000012111609B6818472C710340F48BFF1F3D
:10520000024A034B01211160DB6818473C710340DF
:10521000F48BFF1FF8B5374C374D01E001F0E0FF8C
:1052200023681B06FAD42B6813F08003F6D172B6FC
:1052300032480278002A5BD03149324A324D0F6839
:105240001268324C2E68CD6824683A4414313244D6
:1052500009682F4F2F4E2A4422440A44C2F34E02BB
:105260002D4C2E4D2E4942F400423A603768226898
:105270002E680D680C343A44083124680968294FB7
:1052800032442A4422440A44C2F34E02264E274C9A
:10529000274D284942F400423A60376822682E6858
:1052A0000D680C343A44083124680968224F3244AE
:1052B0002A4422440A44C2F34E02204E204C214D7F
:1052C000214942F400423A60376822682E680D682E
:1052D0000C3408313A442468096832442A44224490
:1052E0000A44C2F34E02194942F400420A600370B4
:1052F00062B6F8BD24B0034024B00B4082B9FF1F52
:1053000038B003403CB0034040B0034048B00340D5
:105310002CB0034058B003405CB0034060B0034081
:1053200064B0034030B0034038B00B403CB00B4099
:1053300040B00B4044B00B402CB00B4058B00B4079
:105340005CB00B4060B00B4064B00B4030B00B4021
:1053500030B42948294A2A4B2A4D6024E12104709F
:1053600011701B78284C082B30D00A2B274828496D
:1053700037D00C2B0CBF15223D2212232A6023604C
:1053800002600B60234B24491B78244ABBB10123E4
:105390000B601360224B23491B78234A012B26D92B
:1053A000042B0FD9082B1ED9102B94BF86238723DB
:1053B0000B6013601D4B01221A7030BC70470B60EC
:1053C0001360E7E784230B601360F3E700F58E209A
:1053D0000F490830012213232A60236002600B600A
:1053E000D0E71922F7E785230B601360E2E78023FB
:1053F0000B601360DEE700BF00400740014007403C
:10540000048CFF1F08B003400CB0034008B00B40F1
:105410000CB00B4085B9FF1F20B0034020B00B40FB
:10542000058CFF1F24B0034024B00B4082B9FF1F3E
:105430000C2830B417D91023984228BF18461C46B0
:10544000104A114D1178181A8C42287018D00F4943
:1054500013700B7823B10E490E4A00230B601360C2
:1054600030BCFFF775BF0A2802D90C231C46E7E7BA
:10547000082802D90A231C46E2E708231C46DFE776
:1054800030BC7047048CFF1F81B9FF1F82B9FF1F1A
:1054900024B0034024B00B4028282FD8334B2DE9EB
:1054A000F0411E5CFF2E2BD0314B1B78002B2AD1F4
:1054B00032062CD472B62F4D2F4C2F460123266076
:1054C0002B7062B672B623681B060CD43B781BB9EE
:1054D000F4E72B78002BF1D062B601F081FE72B6B2
:1054E00023681806F5D5254B1B6800222A7062B682
:1054F000234A107843FA00F0BDE8F081002070479D
:105500000020BDE8F081FFF785FE3206D2D572B6E5
:105510001C4DDFF87C801C4C06F04007FFB206F003
:105520003F06D8F80030DFB123F01003C8F8003090
:1055300001232660134A2B7062B672B623681906DF
:105540000CD413781BB9ECE72B78002BE9D062B6AA
:1055500001F046FE72B623681B06F5D50B4BC3E778
:1055600043F01003C8F80030E2E700BF14700100F8
:1055700082B9FF1F84B9FF1F00B0034010B0034081
:1055800081B9FF1F83B9FF1F00B00B4010B00B4063
:105590000CB00B400A4A0B49136843F48053136064
:1055A0000B7843B9084BC0221A70084B80F30C00EB
:1055B00000B218807047044B80221A70F5E700BFD4
:1055C0002C80044085B9FF1F21C00C4000C00C4056
:1055D000F0B585B010221949684600F089F8184ADC
:1055E000127891071DD51749174D0A7812F07002ED
:1055F00018BF0A701549164A0346802715480F70D0
:105600000026332403212E700470117072B60D4CE5
:1056100043F001032046984762B6237813F07003E5
:1056200009D10D4B064901E0013B02D00A78D207AF
:10563000FAD505B0F0BD237005B0F0BD4070010093
:105640000100024000000240040002400700024046
:105650000A0002400B000240410D0300B0F5006F4C
:105660000AD210B5094B1B78DB07044606D504F1B6
:10567000A0500078C0B210BD00207047FFF7A8FF0F
:1056800004F1A0500078C0B210BD00BF010002407C
:10569000B0F5006F17D238B50F4B1B78DA070D46FF
:1056A000044611D504F1A0500378AB420AD00B4A4E
:1056B000137813F0700318BF1370074A057013783E
:1056C000DB07FCD538BD7047FFF782FF04F1A0501F
:1056D0000378AB42EBD1F5E7010002400000024045
:1056E00008B5FFF793F9FFF765F801F079FDFAE7E0
:1056F00001B441EA000313F003036FD1403A41D3F0
:1057000051F8043B40F8043B51F8043B40F8043B9B
:1057100051F8043B40F8043B51F8043B40F8043B8B
:1057200051F8043B40F8043B51F8043B40F8043B7B
:1057300051F8043B40F8043B51F8043B40F8043B6B
:1057400051F8043B40F8043B51F8043B40F8043B5B
:1057500051F8043B40F8043B51F8043B40F8043B4B
:1057600051F8043B40F8043B51F8043B40F8043B3B
:1057700051F8043B40F8043B51F8043B40F8043B2B
:10578000403ABDD2303211D351F8043B40F8043BCB
:1057900051F8043B40F8043B51F8043B40F8043B0B
:1057A00051F8043B40F8043B103AEDD20C3205D3DB
:1057B00051F8043B40F8043B043AF9D204320AD0D1
:1057C000D2071CBF11F8013B00F8013B03D30B7853
:1057D00003704B78437001BC704700BF0C2A4AD35A
:1057E00010F0030311D0C3F10403D21ADB071CBF6E
:1057F00011F8013B00F8013B07D311F8013B00F819
:10580000013B11F8013B00F8013B11F003033FF4A9
:1058100075AF30B4043AC91AC3F1040C51F8044B03
:10582000022B19D0032B0BD0240A51F8043B1D0680
:1058300044EA050440F8044B1C46043AF4D216E04E
:10584000240E51F8043B1D0244EA050440F8044BC1
:105850001C46043AF4D20AE0240C51F8043B1D041F
:1058600044EA050440F8044B1C46043AF4D20432DE
:10587000B1EB0C0130BC043AA0D3013A11F8013B62
:1058800000F8013BF9D20B7803704B7843708B78AA
:10589000837001BC704700BF08B5104C08E0236856
:1058A00059050DD423681A050FD42368DB0411D4DD
:1058B00023685803F3D500F0A5FC23685905F1D5FA
:1058C00000F00EF823681A05EFD500F009F82368F8
:1058D000DB04EDD500F004F8EAE700BF34800440B3
:1058E00008B5FFF7D9FF00BF014B10221A8070479F
:1058F00000200540704700BF704700BF10B40F4B39
:1059000053F8302092F880422CB1012369B182F81B
:10591000803010BC704703EBC0035B681A6841B964
:1059200022F002021A6010BC704782F8003110BCED
:10593000704742F003021A6010BC704750700100BB
:105940001C4A02EBC00301295B6811D004291BD05B
:1059500052F83000002280F8802229B1022920D09C
:10596000032922D01A6070474FF480721A60704782
:1059700052F830004FF4A27280F880121A601A6850
:1059800022F020021A60704752F830104FF4A272D1
:10599000012081F880021A601A6842F020021A6021
:1059A000704740F203121A6070474FF481721A6018
:1059B000704700BF50700100212848D8F8B5042A6C
:1059C00044D8DFE802F0484B4E0345004FF4102660
:1059D0002B4B03EBC0030D465C68216811F4E061BA
:1059E00048D0284B284A2949C3F89C2104F1404259
:1059F0002748C3F8A411A2F59221264FC3F8A001AD
:105A00007C292548C3F8A871C3F8AC012CD9A2F5AC
:105A100094237C2B2AD9A2F596237C2B28D9A2F596
:105A200098237C2B29D9A2F59A227C2A27D81B48B7
:105A300072B6236823F4702343F08072C4F38401A8
:105A40001643236040F82150266062B6F8BD7047C7
:105A50004FF43026BCE74FF40026B9E74FF4402658
:105A6000B6E74FF42026B3E70D48E1E70D48DFE73E
:105A70000D48DDE7FFF764FFB3E70C48D8E7F8BD52
:105A8000507001000082FF1FF188FF1F9988FF1FDF
:105A9000C588FF1F6D88FF1F4188FF1FE08CFF1F17
:105AA000088CFF1F408CFF1F908CFF1FC08CFF1FB6
:105AB0001A4B03EBC00010B4426802F14043A3F557
:105AC00092217C2923D9A3F594217C290DD9A3F512
:105AD00096217C291FD9A3F598217C2919D9A3F5F2
